:020000040800F2
:10000000880A0020450100088D130008FB0700083E
:10001000B512000891050008172A0008000000002A
:10002000000000000000000000000000AD250008F6
:100030003906000800000000A91D000891270008EB
:100040005F0100085F0100085F0100085F01000810
:100050005F0100085F0100085F0100085F01000800
:100060005F0100085F0100085F0100085F010008F0
:100070005F0100085F0100085F0100085F010008E0
:100080005F0100085F0100085F0100085F010008D0
:100090005F0100085F0100085F0100085F010008C0
:1000A0005F0100085F0100085F0100085F010008B0
:1000B0005F0100085F0100085F0100085F010008A0
:1000C0005F0100085F0100085F0100085F01000890
:1000D0005F010008F52700085F0100085F010008C4
:1000E0005F0100085F0100085F0100085F01000870
:1000F0005F0100085F0100085F0100085F01000860
:100100005F0100085F0100085F0100085F0100084F
:100110005F0100085F0100085F0100085F0100083F
:100120005F0100085F0100085F0100085F0100082F
:10013000DFF80CD000F04AF80048004755350008B9
:10014000880A00200648804706480047FEE7FEE789
:10015000FEE7FEE7FEE7FEE7FEE7FEE7FEE7FEE777
:1001600095270008310100082DE9F05F05460020C1
:1001700092469B4688460646814640241BE0284618
:1001800041464746224600F042F853465A46C01AB6
:10019000914110D311461846224600F029F82D1A35
:1001A00067EB01084F4622460120002100F020F8AD
:1001B00017EB00094E41201EA4F10104DFDC484684
:1001C00031462A464346BDE8F09F0000064C074DE5
:1001D00006E0E06840F0010394E807009847103417
:1001E000AC42F6D3FFF7A8FF94540008B4540008BB
:1001F000202A04DB203A00FA02F1002070479140E7
:10020000C2F1200320FA03F3194390407047202ADB
:1002100004DB203A21FA02F00021704721FA02F3B0
:10022000D040C2F1200291400843194670470000B7
:1002300070B58AB0002501200C23A9A200210090EE
:10024000084601F0E3FA01200C23A9A2182100902E
:10025000002001F0DBFA01F0C1F93DE1012204A91F
:10026000522001F099FC0646262805D0012204A957
:10027000522001F091FC0646262E48D1A2A002F0A1
:1002800041FC012104A801F012FB26283FD10121E5
:1002900004A801F0F8FC012004AB9E4A1121009053
:1002A000602001F047FB9DF813009DF81210CDE986
:1002B00000109DF811309DF8102097A105A802F0BC
:1002C00031FC01200C2305AA19460090002001F002
:1002D0009DFA01200C2386A218210090002001F035
:1002E00095FA9DF8130000909DF812309DF81120AA
:1002F0009DF810108EA002F005FC012001F0FEFB1D
:1003000001F06CF904A802F053F90446012500221B
:1003100003A9522001F040FC0646262805D0002201
:1003200003A9522001F038FC0646262E4ED176A0B5
:1003300002F0E8FB002103A801F0B9FA262845D114
:10034000002103A801F09FFC002003AB714A11219A
:100350000090602001F0EEFA002202A9112001F0C5
:10036000A3FE262803D17BA0029902F0CBFB9DF8C7
:100370000F009DF80E10CDE900109DF80D309DF88E
:100380000C2065A105A802F0CDFB01200C2305AAD5
:1003900024210090002001F039FA9DF80F00009010
:1003A0009DF80E309DF80D209DF80C1060A002F015
:1003B000A9FB002001F0A2FB01F010F9012D00D1F2
:1003C00002254FF40051674800F013FA022D76D150
:1003D000632C15D101200C2363A230210090002052
:1003E00001F014FA01F0FAF84FF4FA7002F01EFE70
:1003F00004205F490870C1025A4800F0FCF96CE023
:1004000001200C235BA230210090002001F0FEF9B6
:1004100001F0E4F84AE000F037FD0D2839D1C4EBD3
:10042000C401574A02EB41010298C8809DF80C00B4
:10043000C4EBC40102EB410108729DF80D10C4EB3E
:10044000C40002EB400041729DF80E10C4EBC400E2
:1004500002EB400081729DF80F10C4EBC40002EB68
:100460004000C1720120C4EBC40102EB41010873DA
:100470000C2344A230210090002001F0C7F901F0C4
:10048000ADF84FF4FA7002F0D1FD0420384908703D
:100490000EE000F0F9FC0A2808D14FF40051314871
:1004A00000F0A9F901203249087001E0B3E706E045
:1004B00000BF4FF400512B4800F09DF90DE000F013
:1004C000E3FC0A2807D10120294908704103254887
:1004D00000F091F901E000BFC0E600BF0AB070BDB6
:1004E00050757420646F776E206120626F6F6B00AF
:1004F00050757420646F776E204C696272617279F6
:100500002063617264000000D1B0BFA8B3C9B9A66E
:100510000A00000038000020524449443A25303295
:1005200058253032582530325825303258000000D6
:1005300054686520436172642052464944206973BF
:100540003A2025303258253032582530325825305F
:100550003258000072656164206F6B2025640D0ABB
:1005600000000000001001406661756C740000001E
:10057000E0000020594553204F52204E4F0000000C
:10058000400600207375636365737366756C0000C5
:1005900000BFFEE72DE9F0478046894615461E4616
:1005A00032460421052000F035F8324600210120B2
:1005B00002F08DFA324680210A2002F04FF8002422
:1005C00007E018F804103246092002F080FA601C97
:1005D000C4B24C45F5DB32460321012002F077FA24
:1005E000FF2400BF3146052001F0A0FD0746601E34
:1005F000C4B21CB107F004000028F3D03146222019
:1006000001F094FD28703146212001F08FFD6870C3
:10061000BDE8F0872DE9F04106460C46154629460F
:10062000304601F083FD074627EA04012A4630469A
:1006300002F04DFABDE8F08170472DE9F041024625
:1006400000250026002000230024002791F803C085
:100650000CF00F0591F803C00CF0100CBCF1000F6A
:1006600003D091F802C04CEA050591F800C0BCF136
:10067000000F31D0146800202BE04FF0010C0CFA71
:1006800000F3B1F800C00CEA03069E4220D18300BB
:100690004FF00F0C0CFA03F7BC4305FA03FC4CEACD
:1006A000040491F803C0BCF1280F06D14FF0010CEF
:1006B0000CFA00FCC2F814C00AE091F803C0BCF1C7
:1006C000480F05D14FF0010C0CFA00FCC2F810C025
:1006D000401C0828D1D31460B1F800C0BCF1FF0F52
:1006E00034DD546800202EE000F1080C4FF00108C2
:1006F00008FA0CF3B1F800C00CEA03069E4221D1BF
:1007000083004FF00F0C0CFA03F7BC4305FA03FC0F
:100710004CEA040491F803C0BCF1280F05D100F1A4
:10072000080C08FA0CF8C2F8148091F803C0BCF168
:10073000480F07D100F1080C4FF0010808FA0CF837
:10074000C2F81080401C0828CED35460BDE8F08168
:10075000F0B50A46002300240021002500F00046E1
:10076000B6F1004F02D11D4EF16901E01B4E7168D8
:10077000C0F3034583B200F44016B6F5401F08D11C
:1007800021F07061154E766826F07066134F7E601A
:1007900012E000F48016B6F5801F06D1032606FA93
:1007A00005F4A14341F0706106E0460D360103FAFD
:1007B00006F6B14341F0706122B1460D360103FAED
:1007C00006F6314300F00046B6F1004F02D1034E69
:1007D000F16101E0014E7160F0BD000000000140D8
:1007E0000246002093680B400BB1012000E000207E
:1007F0007047416170470161704700BFFEE700002C
:1008000010B580210A48FFF7F6FF40210848FFF79E
:10081000F2FF00F037F880210548FFF7EAFF00F00B
:1008200031F840210248FFF7E4FF00F02BF810BD3B
:10083000000C014010B580210648FFF7DAFF402187
:100840000448FFF7D8FF00F01DF880210148FFF7AA
:10085000D2FF10BD000C014010B580210848FFF701
:10086000CAFF00F00FF840210548FFF7C4FF00F071
:1008700009F840210248FFF7BCFF00F003F810BD63
:10088000000C0140032000BF0100A0F10102D0B222
:10089000FAD1704770B588B002F0C0F80446012064
:1008A0000C2364A200210090084600F0AFFF012055
:1008B0000C2364A218210090002000F0A7FF00F094
:1008C0008DFEB3E0C4EBC400614A02EB400101229B
:1008D000522001F061F90546262809D0C4EBC40076
:1008E0005B4A02EB40010122522001F055F9054616
:1008F000262D7DD157A002F005F9C4EBC401544A5E
:1009000002EB4100012100F0D2FF2628F1D1C4EB17
:10091000C4014F4A02EB4100012101F0B4F901206A
:100920000090C4EBC4004A4901EB40034C4A11213A
:10093000602000F0FFFFC4EBC400454901EB40001C
:10094000C078C4EBC401424A02EB41018978CDE989
:100950000010C4EBC400114601EB40004378C4EB27
:10096000C40011F810203FA103A802F0DBF8012019
:100970000C2303AA19460090002000F047FF012035
:100980000C2330A218210090002000F03FFFC4EBA0
:10099000C4002F4901EB4000C0780090C4EBC400B4
:1009A0000E4606EB40008378C4EBC40006EB400023
:1009B0004278C4EBC40016F8101030A002F0A2F880
:1009C000012001F09BF800F009FE2421002000F036
:1009D00003FAC4EBC401324602EB410188800120D6
:1009E000C4EBC40102EB410148730C232CA200E0CC
:1009F0000EE030210090002000F008FF00F0EEFD36
:100A00004FF4FA7002F012FB0120264908700EE044
:100A100000F03AFA0A2808D14FF400512248FFF7B3
:100A2000EAFE01201F49087001E000BF4AE700BF4D
:100A300008B070BD50757420646F776E20612062BD
:100A40006F6F6B00496E7075742049443A00000066
:100A500040060020D1B0BFA8B3C9B9A60A00000063
:100A600038000020524449443A253032582530326B
:100A7000582530325825303258000000546865201F
:100A80004361726420524649442069733A202530FC
:100A9000325825303258253032582530325800002F
:100AA0004F4B0000E00000200010014030B587B03F
:100AB00001200C2378A200210090084600F0A6FE39
:100AC00000F08CFD0021502000F086F9054600243E
:100AD000ABE0052C09D101200C2372A2194600902D
:100AE000002000F093FE00F079FDC4EBC4007249D1
:100AF00001EB40008088A8427ED1C4EBC40001EB2A
:100B00004000407B0128F7D1C4EBC40001EB40005A
:100B1000C078C4EBC401684A02EB41018978CDE991
:100B20000010C4EBC400114601EB40004378C4EB55
:100B3000C40011F8102061A102A801F0F3FF012008
:100B40000C2302AA18210090002000F05FFEC4EBE5
:100B5000C400594901EB4000007B012836D1C4EBA9
:100B6000C40001EB4000C2885BA102A801F0DAFFDB
:100B700001200C2302AA19460090002000F046FE36
:100B8000C4EBC4004C4901EB4000C07AC4EBC40183
:100B9000494A02EB4101897ACDE90010C4EBC40057
:100BA000114601EB4000437AC4EBC40001EB400066
:100BB000027A4CA102A801F0B5FF01200C2302AA81
:100BC00024210090002000F021FE0FE001200C23E2
:100BD0004BA219460090002000F018FE01200C23C3
:100BE0004BA224210090002000F010FEC4EBC400B2
:100BF000314901EB400000E015E0007B012807D1FE
:100C00000C2347A230210090002000F0FFFD07E0F8
:100C100001200C2345A230210090002000F0F6FDB9
:100C200000F0DCFC04E0601CC4B2062CFFF651AFFF
:100C300000BF4FF4FA7002F0F9F923E000F024F954
:100C40000B2812D10020C4EBC4011B4A02EB410166
:100C5000487300F0DFFB01200C2337A22421009011
:100C6000002000F0D3FD00F0B9FC00F00DF90A28D7
:100C700008D14FF400513548FFF7BDFD012034493C
:100C8000087003E000F000F90C28D7D100BF022063
:100C90002F49087007B030BD496E70757420494403
:100CA0003A0000005365617263682066727569746A
:100CB0006C6573730000000040060020426F6F6B8C
:100CC0005F524649443A2530325825303258253053
:100CD000325825303258000042727277725F4944B0
:100CE0003A25640042727277725F524649443A254F
:100CF000303258253032582530325825303258009D
:100D000042727277725F49443A4E6F6E650000001E
:100D100042727277725F524649443A4E6F6E650076
:100D20004F7574206F6E206C6F616E004E6F742073
:100D30006F6E206C6F616E0044656C657465205346
:100D400075636365737366756C0000000010014085
:100D5000E000002008B50121092001F0EFF8012191
:100D60001A48FFF7F5FC4FF49C70ADF800002820FE
:100D70008DF8030069461648FFF75FFC4FF460608A
:100D8000ADF8000010208DF8030003208DF802005C
:100D900069460F48FFF751FC4FF48070ADF8000032
:100DA00010208DF8030003208DF8020069460948E1
:100DB000FFF743FC4FF460610548FFF71AFD4FF45D
:100DC00080710448FFF715FD08BD000000023000E7
:100DD000000C0140000801402DE9FE43064688460C
:100DE00000244BE000F050F863282CD000F04CF8C1
:100DF00005460A2002F01AF900BF00F045F8632802
:100E0000FBD10A2D0AD14FF400511D48FFF7F3FC26
:100E100001201C4908706320BDE8FE8302A8055527
:100E200001200C21CDE9001002A90A5D04EB840128
:100E300006EB4101C8B20123414600F0A1FC00F0DD
:100E4000CDFB601CC4B2032C18DD9DF808004FF4E4
:100E50007A7148439DF8091001EBC10202EB0111C0
:100E600000EB81009DF80A1001EB810100EB4100CD
:100E70009DF80B10084487B23846CDE7B2E7000072
:100E800000100140E000002010B563207049087098
:100E90004FF400716F48FFF7AEFC08216D48FFF773
:100EA0009FFC012802D16A4908701DE010216948A1
:100EB000FFF796FC012803D104206549087013E070
:100EC00020216448FFF78CFC012803D107206049EA
:100ED000087009E04FF480715E48FFF781FC01283B
:100EE00002D10A205A4908704FF400715948FFF79F
:100EF00080FC4FF480615748FFF77DFC082155487E
:100F0000FFF76EFC012803D10220514908701DE053
:100F100010215048FFF764FC012803D105204C49FB
:100F2000087013E020214B48FFF75AFC012803D139
:100F300008204749087009E04FF480714548FFF7E1
:100F40004FFC012802D10020414908704FF4806114
:100F50004048FFF74EFC4FF400613E48FFF74BFC62
:100F600008213C48FFF73CFC012803D10320384905
:100F700008701DE010213748FFF732FC012803D12B
:100F800006203349087013E020213248FFF728FC7F
:100F9000012803D109202E49087009E04FF480711F
:100FA0002C48FFF71DFC012802D10B2028490870AE
:100FB0004FF400612748FFF71CFC4FF4807126486E
:100FC000FFF719FC08212348FFF70AFC012803D189
:100FD0000F201F4908701DE010211E48FFF700FC7C
:100FE000012803D10E201A49087013E02021194866
:100FF000FFF7F6FB012803D10D201549087009E021
:101000004FF480711348FFF7EBFB012802D10C204D
:101010000F4908704FF480710F48FFF7EAFB0F4843
:10102000007838B90A480078632803D00848007867
:101030000B49087006480078632803D1002007494F
:10104000087002E00120054908700148007810BDD1
:1010500034000020000C0140000801403300002053
:101060003200002008B50121102000F067FF4FF486
:101070000050ADF8000010208DF8030003208DF81B
:10108000020069460448FFF7D8FA4FF400510248BD
:10109000FFF7B1FB08BD00000010014070B588B03B
:1010A000002401F0BBFC044601200C2347A20021D0
:1010B0000090084600F0AAFB01200C2349A2182149
:1010C0000090002000F0A2FB00F088FA79E00022F6
:1010D00002A9522000F060FD0546262805D0002216
:1010E00002A9522000F058FD0546262D5BD140A0F4
:1010F00001F008FD002102A800F0D9FB262852D1FA
:10110000002102A800F0BFFD002002AB3B4A1121E4
:101110000090602000F00EFC9DF80B009DF80A1076
:10112000CDE900109DF809309DF8082034A103A8EE
:1011300001F0F8FC01200C2303AA194600900020BE
:1011400000F064FB00F04AFAC4EBC400324901EB42
:101150004000C07800909DF80A309DF809209DF865
:1011600008102EA001F0CEFC24210020FFF734FE51
:10117000064600223146112001F066FC002000F0F6
:10118000BDFC01200C232EA230210090002000F095
:101190003DFB00F023FA4FF47A7001F047FF032083
:1011A000284908700EE0FFF76FFE0A2808D14FF4B7
:1011B00000512548FFF71FFB01202249087001E07C
:1011C00000BF84E700BF08B070BD000050757420F8
:1011D000646F776E204C696272617279206361720C
:1011E00064000000496E7075742049443A000000A4
:1011F000D1B0BFA8B3C9B9A60A00000038000020CA
:10120000524449443A25303258253032582530323C
:1012100058253032580000004006002054686520F0
:101220004361726420524649442069733A20253054
:101230003258253032582530325825303258000087
:101240004F4B0000E00000200010014070B5054643
:101250000C46412D2DD1224608210846FFF7DAF928
:1012600022463D21112001F032FC22468621172022
:1012700001F02DFC22467F21262001F028FC224689
:101280001E212D2001F023FC224600212C2001F0FC
:101290001EFC22468D212A2001F019FC22463E2107
:1012A0002B2001F014FC022001F0E6FE204600F0A5
:1012B000EEFA70BD00BFFEE710B5FFF7E5FD0E28A2
:1012C00010D100BFFFF7E0FD0E28FBD02C480078BE
:1012D00000EB40002B4901EB800040782849087062
:1012E00000F098F8FFF7D0FD0F2810D100BFFFF7EE
:1012F000CBFD0F28FBD02248007800EB40002149AD
:1013000001EB800080781E49087000F083F8FFF739
:10131000BBFD0D2810D100BFFFF7B6FD0D28FBD097
:101320001748007800EB4000164901EB8000C078B8
:101330001349087000F06EF8FFF7A6FD0C2810D1D5
:1013400000BFFFF7A1FD0C28FBD00D48007800EB93
:1013500040000C4901EB800000790949087000F059
:1013600059F80748007800EB4000064901EB80007F
:1013700080680549086008460068804710BD000085
:10138000E0000020440000204000002070470000E2
:1013900070B5002100230F22C47804B3154C2468D3
:1013A00004F4E064C4F5E064210AC1F10403CA4016
:1013B000447804FA03F184781440214309010E4C67
:1013C0000678A155047804F01F050124AC40057887
:1013D0006D11AD0005F1E025C5F8004109E0047884
:1013E00004F01F050124AC40044D0678761145F841
:1013F000264070BD0CED00E000E400E080E100E07C
:1014000002490143024A1160704700000000FA05DA
:101410000CED00E070B500240CE0002506E0002093
:10142000074901EBC5010855681CC5B2802DF6DBE4
:10143000601CC4B2082CF0DB00F0D0F870BD0000D6
:10144000C0010020F0B514460B46CF1701EB5777CB
:10145000C7F3C702CF1701EB5777FF10A1EBC70700
:10146000FEB20123B340DDB24CB1134B03EBC0031A
:101470009B5C2B43104F07EBC007BB541AE00E4B8D
:1014800003EBC0039B5CDB430B4F07EBC007BB5474
:10149000094B03EBC0039B5C2B43074F07EBC007D3
:1014A000BB54054B03EBC0039B5CDB43024F07EBD4
:1014B000C007BB54F0BD0000C001002008B50121E9
:1014C000082000F03BFDC020ADF8000010208DF892
:1014D000030003208DF8020069463948FFF7ADF894
:1014E00044F6206001F078FD0021AE2000F0B3F951
:1014F0000021084600F0AFF90021102000F0ABF900
:101500000021402000F0A7F90021812000F0A3F97C
:101510000021CF2000F09FF90021A02000F09BF9CE
:101520000021C02000F097F90021A62000F093F9D7
:101530000021A82000F08FF900213F2000F08BF956
:101540000021D32000F087F90021084600F083F93C
:101550000021D52000F07FF90021802000F07BF9E8
:101560000021D92000F077F90021F12000F073F973
:101570000021DA2000F06FF90021122000F06BF951
:101580000021DB2000F067F90021302000F063F932
:101590000021202000F05FF90021022000F05BF91B
:1015A00000218D2000F057F90021142000F053F99C
:1015B000FFF730FF0021AF2000F04DF908BD00001B
:1015C000000C014010B50246012000E050430B0022
:1015D000A1F10104E1B2F9D110BD000070B5002401
:1015E0002BE004F1B001C8B2002100F034F9002171
:1015F000084600F030F90021102000F02CF9FFF728
:10160000FFF8782001F004F8FFF726F9402000F0F9
:10161000FFFFFFF721F9002509E0094901EBC501AA
:10162000085D00F0F5FFFFF717F9681CC5B2802DC3
:10163000F3DBFFF7FFF8601CC4B2082CD1DB70BDF0
:10164000C00100202DE9FE4F0746884692461C4601
:101650000197CDF80080082C02D14FF006091FE059
:101660002046E31704EB5373DB1021464FEAE47C7A
:1016700004EB5C7C4FEAEC0CA4EBCC0CBCF1000F4F
:1016800002D04FF0010C01E04FF0000C6344224601
:1016900004EBD27C4FEA6C0C03FB0CF303F0FF0964
:1016A000AAF12000C6B200255EE0082C07D106EBA7
:1016B00046002F4901EB400010F805B01DE00C2C4E
:1016C00007D106EB46002B4901EB800010F805B06E
:1016D00013E0102C05D1284800EB061010F805B0D7
:1016E0000BE0182C07D106EBC600244901EB800063
:1016F00010F805B001E0BDE8FE8F002002901CE06C
:101700000BF0010028B1414638460C9AFFF79AFECB
:1017100009E00C9808B9012000E00020024641468B
:101720003846FFF78FFE4FEA6B0B08F1010000F01F
:10173000FF080298401CC0B2029002980828DFDB24
:10174000781CC7B2082C0BD004EBD4714A10019955
:10175000791A8A4204D1019F00980830C0B20090E3
:10176000DDF80080681CC5B24D459EDB00BFC2E7B6
:1017700084360008AC380008203D000810430008FB
:101780002DE9FF4F82B0064691461F46DDE90F4A1C
:101790004FF0000B082C01D14FF0020B002530E078
:1017A000781B401EC1B20A20FFF70CFFB9FBF0F016
:1017B0000A21B0FBF1F201FB1208B8F1000F0ED1C3
:1017C00004EBD4710BEB610101FB0561C8B2234648
:1017D0003022CDE900A40399FFF734FF0FE004EBBA
:1017E000D4710BEB610101FB0561C8B208F1300156
:1017F000CAB22346CDE900A40399FFF723FF681C72
:10180000C5B2BD42CCDB06B0BDE8F08F2DE9F84192
:1018100006460F4614461D46DDF81C8013E0CDF841
:10182000008022782B4639463046FFF70BFF082D03
:1018300002D1B01DC6B205E0284605EBD07106EB1B
:101840006101CEB2641C2078202802DB20787E283B
:10185000E5DDBDE8F88170B505460C46FEF7D0FF22
:10186000782000F0D5FEFEF7F7FF1CB1402000F015
:10187000CFFE02E0002000F0CBFEFEF7EDFF284691
:1018800000F0C6FEFEF7E8FFFEF7D4FF70BD70B5AE
:1018900004462146142000F049FC054605F00300EB
:1018A00020B922460321142000F0D8FE70BD2DE996
:1018B000F04188B006460D464FF000082A46082140
:1018C0000846FEF7A7FE2A4600210D2001F0FFF88A
:1018D0002A4680210E20FEF79DFE93208DF80C00F5
:1018E00020208DF80D0002A803AB022203A9CDE948
:1018F00000050C2000F05AF80746262F11D10024CD
:1019000008E003A8005D305503A8005D80EA0808E0
:10191000601CC4B2042CF4DB03A8005D404500D079
:10192000BB272A4680210E2000F098FE384608B0DA
:10193000BDE8F0812DE9F04788B006460F46904695
:101940009946DDF840A08DF80C608DF80D700024EC
:1019500006E018F8041003AAA01C1154601CC4B2BD
:10196000062CF6DB002407E019F8041003AA04F1A2
:1019700008001154601CC4B2062CF5DB02A803ABAE
:101980000C2203A9CDE9000A0E2000F00FF805464D
:10199000262D06D15146082000F0C8FB00F00800B3
:1019A00000B9BB25284608B0BDE8F0872DE9FC5FEB
:1019B0000646884691469A46BB2001904FF0000BA0
:1019C000002000900C2E06D00E2E09D14FF0120BE5
:1019D0001020009005E04FF0770B3020009000E0E1
:1019E00000BF00BF4BF0800102200D9A01F06FF89C
:1019F000802104200D9AFEF70DFE002101200D9A92
:101A000001F065F880210A200D9A00F027FE0025DC
:101A100006E018F8051009200D9A01F058F86D1C21
:101A20004D45F6D3314601200D9A01F050F80C2EA9
:101A300004D180210D200D9A00F010FE4FF47A752C
:101A400000BF04200D9900F071FB04466D1E35B1F6
:101A500004F0010018B9009820400028F1D080213E
:101A60000D200D9AFEF7D6FD002D3AD006200D99D7
:101A700000F05CFB00F01B0080BB2620019004EA14
:101A80000B0000F0010008B1CC2001900C2E28D1F1
:101A90000A200D9900F04AFB04460C200D9900F035
:101AA00045FB00F007072FB1601E07EBC0010C9843
:101AB000016002E0E1000C98016004B90124122CDD
:101AC00000DD1224002506E009200D9900F02EFB10
:101AD0000AF805006D1CA542F6D302E0FFE7BB2023
:101AE000019080210C200D9A00F0B8FD002101200A
:101AF0000D9A00F0ECFF0198BDE8FC9F10B588B08E
:101B0000044650208DF80C0000208DF80D0023466F
:101B10000DF10E02022103A8FEF73CFD02A803AB63
:101B2000042203A9CDE900040C20FFF73FFF262083
:101B300008B010BD2DE9F04188B006460F461546A5
:101B400030208DF80C008DF80D602B460DF10E0243
:101B5000022103A8FEF71EFD02A803AB042203A97D
:101B6000CDE900050C20FFF721FF8046B8F1260FD4
:101B70000CD10298902809D1002404E003A8005D4C
:101B80003855601CC4B2102CF8DB01E04FF0BB08E4
:101B9000404608B0BDE8F081F0B589B005460C4676
:101BA0001646324608210846FEF734FD3246072124
:101BB0000D2000F08CFF32460321142000F04EFD72
:101BC0008DF8105003A804AB012204A9CDE900064A
:101BD0000C20FFF7EBFE0746262F09D103981028AB
:101BE00006D19DF8100020709DF81100607000E093
:101BF000BB27384609B0F0BD10B504462146002089
:101C000000F036FA012001F037FA2146012000F0F9
:101C10002FFA012001F030FA2146002000F028FAC6
:101C2000012001F029FA22460F21012000F04FFF88
:101C300000BF2146012000F079FA00F010000028D2
:101C4000F7D1012001F018FA22463D21112000F0C1
:101C50003EFF22461E212D2000F039FF22460021A2
:101C60002C2000F034FF22468D212A2000F02FFF87
:101C700022463E212B2000F02AFF2246402115203B
:101C800000F025FF10BDF0B589B006460D46932043
:101C90008DF8100070208DF8110000208DF81600CE
:101CA00000240BE0315D04AAA01C11549DF816001D
:101CB000315D48408DF81600601CC4B2042CF1DB85
:101CC0002B460DF11702072104A8FEF763FC2A46F4
:101CD00008210846FEF79EFC03A804AB092204A9CC
:101CE000CDE900050C20FFF761FE0746262F03D142
:101CF0000398182800D100E0BB27384609B0F0BD92
:101D00002DE9F04188B0074688461546A0208DF899
:101D10000C008DF80D702B460DF10E02022103A868
:101D2000FEF738FC02A803AB042203A9CDE90005A5
:101D30000C20FFF73BFE0646262E08D10298042809
:101D400005D19DF80C0000F00F000A2800D0BB263A
:101D5000262E25D1002405E018F8040003A9085513
:101D6000601CC4B2102CF7DB2B4607AA102103A875
:101D7000FEF710FC02A803AB122203A9CDE900056F
:101D80000C20FFF713FE0646262E08D102980428E1
:101D900005D19DF80C0000F00F000A2800D0BB26EA
:101DA000304608B0BDE8F0817047000010B500F083
:101DB00017F804210848FEF71EFD08210648FEF723
:101DC0001AFD4FF480510548FEF715FD1021024819
:101DD000FEF711FD10BD000000080140000C01409D
:101DE00008B50121082000F0A9F84FF48050ADF8A3
:101DF000000003208DF8020010208DF803006946D2
:101E00004C48FEF71AFC0121082000F097F84FF427
:101E10000050ADF8000003208DF8020010208DF86E
:101E2000030069464348FEF708FC0121082000F042
:101E300085F84FF40040ADF8000003208DF8020053
:101E400010208DF8030069463A48FEF7F6FB0121A1
:101E5000082000F073F84FF48040ADF80000042033
:101E60008DF8030069463348FEF7E7FB01210420A3
:101E700000F064F80420ADF8000003208DF80200A3
:101E800010208DF8030069462B48FEF7D6FB012190
:101E9000042000F053F81020ADF8000003208DF866
:101EA000020010208DF8030069462348FEF7C5FBA9
:101EB0000121042000F042F82020ADF800000320AA
:101EC0008DF8020010208DF8030069461A48FEF7CD
:101ED000B4FB0121042000F031F88020ADF80000AF
:101EE00003208DF8020010208DF803006946124887
:101EF000FEF7A3FB0121042000F020F84020ADF8FC
:101F0000000004208DF8030069460B48FEF795FB9E
:101F10000121042000F012F80820ADF80000032091
:101F20008DF8020010208DF8030069460248FEF784
:101F300084FB08BD000C01400008014029B1064A9D
:101F400092690243044B9A6104E0034A9269824316
:101F5000014B9A61704700000010024030B500212B
:101F60000022002400232D4D6D6805F00C0121B1E5
:101F7000042905D0082923D105E0294D056022E078
:101F8000274D05601FE0254D6D6805F47012234D47
:101F90006D6805F48034022505EB92421CB9214D91
:101FA000554305600BE01D4D6D6805F400351DB10E
:101FB0001C4D5543056002E0194D5543056002E094
:101FC000174D056000BF00BF144D6D6805F0F001AE
:101FD0000909154D6B5C0568DD4045600F4D6D6866
:101FE00005F4E061090A104D6B5C4568DD408560D1
:101FF0000A4D6D6805F46051C90A0B4D6B5C45686C
:10200000DD40C560054D6D6805F44041890B074D05
:102010006B5CC568B5FBF3F5056130BD001002408F
:1020200000127A0000093D001E0000202E00002052
:1020300070B505460C465DB12CB14FF480510A488D
:10204000FEF7D7FB0FE010210848FEF7D2FB0AE0AD
:102050002CB14FF480510448FEF7CDFB03E0102172
:102060000248FEF7C8FB70BD000C014000080140AB
:1020700070B505460C4655B124B104210948FEF758
:10208000B8FB0EE008210748FEF7B3FB09E024B1D6
:1020900004210448FEF7AFFB03E008210148FEF7E6
:1020A000AAFB70BD000801402DE9FF4107460D461F
:1020B0009046BB26424669463846FFF73BFD06463A
:1020C000262E03D0304604B0BDE8F081002412E093
:1020D0001DF8041004F108001DF80000814208D02A
:1020E0001DF80410201D1DF80000C043814200D0DF
:1020F00003E0601CC4B2042CEADB00BF042C10D146
:1021000026269DF800009DF8011000EB01209DF8A7
:10211000021000EB01409DF8031000EB0160286005
:1021200002E0BB26002028603046CCE72DE9F041D4
:1021300004460D467E2000EA440040F08006294611
:102140000120FFF775FF2946304600F0D7F92846F1
:1021500000F084F9074629460020FFF769FF38465A
:10216000BDE8F08170B58AB0002501200C2393A250
:10217000002100900846FFF749FB01200C2393A2A1
:10218000182100900020FFF741FBFFF727FA10E12C
:10219000012204A95220FFF7FFFC0646262805D09D
:1021A000012204A95220FFF7F7FC0646262E48D14B
:1021B0008CA000F0A7FC012104A8FFF778FB2628DB
:1021C0003FD1012104A8FFF75EFD012004AB884A3E
:1021D000112100906020FFF7ADFB9DF813009DF8E2
:1021E0001210CDE900109DF811309DF8102081A14A
:1021F00005A800F097FC01200C2305AA19460090C1
:102200000020FFF703FB01200C2370A2182100908F
:102210000020FFF7FBFA9DF8130000909DF81230A4
:102220009DF811209DF8101078A000F06BFC0120A3
:10223000FFF764FCFFF7D2F904A800F0B9F90446EF
:102240000125002203A95220FFF7A6FC06462628F6
:1022500005D0002203A95220FFF79EFC0646262E39
:102260003ED160A000F04EFC002103A8FFF71FFB49
:10227000262835D1002103A8FFF705FD002003AB78
:102280005B4A112100906020FFF754FB9DF80F007E
:102290009DF80E10CDE900109DF80D309DF80C2032
:1022A00054A105A800F03EFC01200C2305AA24211E
:1022B00000900020FFF7AAFA9DF80F0000909DF80B
:1022C0000E309DF80D209DF80C1050A000F01AFC67
:1022D0000020FFF713FCFFF781F9012D00D1022543
:1022E000022D58D129035248FEF783FA632C15D1E9
:1022F00001200C234FA2302100900020FFF786FA26
:10230000FFF76CF94FF4FA7000F090FE05204B498E
:10231000087029034648FEF76EFA4BE001200C23B3
:1023200047A2302100900020FFF770FAFFF756F91E
:1023300029E0FEF7A9FD0D2818D10020C4EBC40147
:10234000424A02EB4101087301200C2340A23021D4
:1023500000900020FFF75AFAFFF740F94FF4FA70A7
:1023600000F064FE0520354908700DE0FEF78CFD95
:102370000A2808D14FF400512D48FEF73CFA0120FD
:102380002E49087000E0D4E700BF4FF40051284800
:10239000FEF731FA0EE0FEF777FD0A2808D14FF478
:1023A00000512348FEF727FA01202449087001E074
:1023B00000BFEDE600BF0AB070BD0000507574208C
:1023C000646F776E206120626F6F6B0050757420B0
:1023D000646F776E204C69627261727920636172FA
:1023E00064000000D1B0BFA8B3C9B9A60A000000BC
:1023F00038000020524449443A25303258253032C2
:102400005825303258253032580000005468652075
:102410004361726420524649442069733A20253052
:102420003258253032582530325825303258000085
:10243000001001406661756C74000000E00000202F
:10244000594553204F52204E4F00000040060020B7
:102450007375636365737366756C000070B50646CB
:102460002EB300241FE06806050E4FF400512148EA
:10247000FEF7BFF9022000F0FFFD4FF480411D4838
:10248000FEF7AEF9012801D145F00105022000F068
:10249000F3FD4FF400511748FEF7ADF9022000F0AC
:1024A000EBFD601CC4B2082CDDDB284670BD0024A7
:1024B0001CE06806050E20210F48FEF79AF902205D
:1024C00000F0DAFD40210C48FEF78AF9012801D11D
:1024D00045F00105022000F0CFFD20210648FEF75F
:1024E0008AF9022000F0C8FD601CC4B2082CE0DBB1
:1024F0002846DBE7000C01400008014070B50546A6
:102500000E464EB3002424E005F0800028B14FF4BD
:1025100000412448FEF76FF904E04FF400412148E0
:10252000FEF767F9022000F0A7FD4FF400511D48A7
:10253000FEF75FF9022000F09FFD4FF400511948AB
:10254000FEF759F9022000F097FD6806050E601CA1
:10255000C4B2082CD8DB24E0002420E005F0800081
:1025600020B180211048FEF746F903E080210E4893
:10257000FEF73FF9022000F07FFD20210A48FEF718
:1025800038F9022000F078FD20210748FEF733F9E2
:10259000022000F071FD6806050E601CC4B2082C14
:1025A000DCDB70BD000C01400008014070470000FA
:1025B00010B50246002100BF23E01078C1EBC10333
:1025C000124C14F81330984219D15078C1EBC10362
:1025D00004EB43035B78984211D15078C1EBC103FF
:1025E00004EB43035B78984209D15078C1EBC103F7
:1025F00004EB43035B78984201D1084610BD481CA8
:10260000C1B20529D9DB6320F8E7000040060020AD
:1026100070B5044600251BE004F0800020B1802145
:102620000D48FEF7E8F803E080210B48FEF7E1F8DB
:10263000FEF728F940210848FEF7DDF8FEF722F9F9
:1026400040210548FEF7D5F86006040E681CC5B2A7
:10265000082DE1DB70BD0000000C01402DE9F041C8
:1026600006460C46154629463046FFF75FFD0746ED
:1026700047EA04012A46304600F029FABDE8F08115
:1026800010B500F001F810BD0CB5002001900090CD
:102690003348006840F480303149086000BF30485A
:1026A000006800F4003000900198401C01900098F0
:1026B00018B90198B0F5A06FF1D12948006800F46D
:1026C000003010B10120009001E00020009000983F
:1026D000012843D12348006840F0100021490860D8
:1026E0000846006820F0030008600846006840F0D3
:1026F000020008601A484068194948600846406866
:1027000048600846406840F4806048600846406879
:1027100020F47C1048600846406840F4E8104860A7
:102720000846006840F08070086000BF0C480068F0
:1027300000F000700028F9D00948406820F003003C
:10274000074948600846406840F00200486000BF02
:102750000348406800F00C000828F9D10CBD0000C7
:102760000010024000200240042808D14FF0E02170
:10277000096941F004014FF0E022116107E04FF0D8
:10278000E021096921F004014FF0E0221161704756
:102790007047000010B51348006840F0010011496F
:1027A000086008464068104908400E4948600846DD
:1027B00000680E4908400B4908600846006820F48C
:1027C000802008600846406820F4FE0048604FF40E
:1027D0001F008860FFF754FF4FF000600449086055
:1027E00010BD0000001002400000FFF8FFFFF6FEE1
:1027F00008ED00E010B540F225511D4800F04AF800
:1028000010B31B4800F002F9C4B21A48008800F463
:102810000040C8B91748008800F4804060B10A2C15
:1028200003D000201349088020E01248008840F4BB
:1028300000401049088019E00D2C06D10D48008891
:1028400040F480400B49088010E00A480088C0F33B
:102850000D0009490C5407480088401C05490880B0
:1028600008460088C72801DD0020088010BD000050
:10287000003801401C000020F800002021B18289AE
:1028800042F40052828104E082894DF6FF731A40BF
:102890008281704770B50246002400230025002085
:1028A00040F66A16B14200D100BFC1F3421501F0F3
:1028B0001F03012606FA03F3012D02D19689334046
:1028C00006E0022D02D1168A334001E0968A334099
:1028D0000C12012606FA04F41688344013B10CB128
:1028E000012000E0002070BDF0B503460024002662
:1028F0000025002040F66A17B94200D100BF1846F3
:10290000C1F3421401F01F06012707FA06F5012C56
:1029100001D10C3004E0022C01D1103000E0143061
:102920001AB107682F43076002E00768AF430760EA
:10293000F0BD00002DE9F04786B005460E460024A4
:10294000A24600BFA1460027B08900B100BF2F46B4
:102950002C8A4CF6FF700440F08804432C82AC892A
:102960004EF6F3100440B08831890843718908435A
:102970000443AC81AC8A4FF6FF400440B089044365
:10298000AC8201A8FFF7EAFA1F48874202D1DDF8BE
:1029900010A001E0DDF80CA0A88900F4004040B1CF
:1029A0000AEBCA0000EB0A1031684900B0FBF1F8ED
:1029B00007E00AEBCA0000EB0A1031688900B0FB9F
:1029C000F1F86420B8FBF0F004012009642101FB58
:1029D0001089A88900F4004040B1322000EBC90002
:1029E000B0FBF1F000F00700044308E0322000EBF8
:1029F00009106421B0FBF1F000F00F0004432C81BA
:102A000006B0BDE8F0870000003801400146888824
:102A1000C0F30800704700BFFEE70000002100205F
:102A200001460BE0C1EBC100064A02EB4000407BCF
:102A300008B908467047481CC0B201460529F1DBB9
:102A400000BFF7E7400600202DE9FF4105460C4690
:102A50001646E0B28DF80000200A8DF80100200C27
:102A60008DF80200200E8DF80300E043C0B28DF80F
:102A70000400E043000A8DF80500E043000C8DF8E7
:102A80000600E043000E8DF80700E0B28DF8080064
:102A9000200A8DF80900200C8DF80A00200E8DF810
:102AA0000B008DF80C50E843C0B28DF80D008DF886
:102AB0000E50E843C0B28DF80F00324669462846F2
:102AC000FFF71EF90746384604B0BDE8F0812DE94E
:102AD000F04104460D4616467E2000EA4407314682
:102AE0000120FFF7A5FA31463846FFF707FD3146CA
:102AF0002846FFF703FD31460020FFF799FABDE8AD
:102B0000F08100000FB4054B10B503A9044A0298E8
:102B100000F02CF810BC5DF814FB0000C530000874
:102B2000180000200FB4084B10B504A902AA03989E
:102B300000F01CF8044602A9002000F048FA2046E4
:102B400010BC5DF814FB0000CF2F000802E008C89D
:102B5000121F08C1002AFAD170477047002001E017
:102B600001C1121F002AFBD1704700002DE9FF4F61
:102B70008DB00F460546002606E025280BD0DDE97E
:102B80000F1290476D1C761C28780028F5D111B0E3
:102B90003046BDE8F08F0024A246A1460122EC4950
:102BA00000E0044315F8013F203B02FA03F008421D
:102BB000F7D128782A2810D06FF02F022878A0F1BA
:102BC0003001092914D80AEB8A0102EB410144F0D3
:102BD000020400EB010A6D1CF0E701CF5FEA000A76
:102BE00003D544F40054CAF1000A44F002046D1CF9
:102BF00028782E2817D115F8010F44F004042A284C
:102C00000ED06FF02F022878A0F1300109290AD8E0
:102C100009EB890102EB410100EB01096D1CF2E7B0
:102C200057F8049B6D1C28786C280FD006DC4C28C4
:102C300017D068280DD06A2814D104E0742810D069
:102C40007A280FD10DE044F400140AE044F4801413
:102C500001E044F440146978814202D104F5801403
:102C60006D1C6D1C2A786E2A1FD00CDC632A31D0B3
:102C700004DC002A8BD0582A11D1A3E0642A68D042
:102C8000692A0CD165E0732A2ED004DC6F2A73D038
:102C9000702A04D19BE0752A6FD0782A6ED0104636
:102CA000DDE90F129047761C50E1C4F30250022870
:102CB00006D0032809D0042801CF09D0066045E1D9
:102CC00001CFF117C0E9006140E101CF06803DE18D
:102CD00006703BE117F8040B8DF8000000208DF81A
:102CE0000100EB46012003E057F804BB4FF0FF3032
:102CF00061074FF0000102D40DE008F101018846A0
:102D000049450FDA8045F8DB1BF808100029F4D19B
:102D100008E008F1010188468142FADB1BF808103F
:102D20000029F6D1DDE90F23AAEB080081462146F0
:102D300000F036F9304400EB080604E0DDE90F123C
:102D40001BF8010B9047B8F10108F7D2214648461D
:102D5000F7E00A21C4F302534FF0000B0891022B55
:102D600004D001CFC117032B09D00AE0FF1D27F0C3
:102D70000707F7E8020108E032E01FE020E000B2B8
:102D8000C117042B01D140B2C117031E71F100031A
:102D900007DA4FF0000CD0EB0C006CEB01012D2397
:102DA00002E0230504D52B238DF82430012303E012
:102DB000E30701D02023F7E7984658E00A2110E006
:102DC00010210EE010204FF0000B08900CE01021B5
:102DD0004FF0000B44F004044FF00809089103E0A1
:102DE00008214FF0000B0891C4F30253022B04D0CA
:102DF00001CF0021032B06D006E0FF1D27F00707B7
:102E0000F7E8020103E080B2042B00D1C0B24FF01A
:102E1000000823072BD5702A07D0DDF820C08CF0DE
:102E2000100C5CEA0B0C05D00EE040238DF824302A
:102E3000012308E050EA010306D030238DF8243046
:102E40008DF8252002239846DDF820C08CF0080C70
:102E50005CEA0B0C0BD150EA010301D1630706D5E4
:102E600030238DF824304FF00108A9F10109582AC8
:102E700004D038A20B9208AA0A920BE03AA2F9E712
:102E80005B46089AFDF770F90B9B9B5C0A9A521EF1
:102E90000A92137050EA0102F2D10A98ADEB0000D9
:102EA00000F1200B600702D524F4803401E04FF0DC
:102EB0000109D94502DDA9EB0B0000E0002000EB81
:102EC0000B0141440890AAEB010AE00306D4DDE9B6
:102ED0000F232146504600F063F806444FF00009E6
:102EE00008E009A911F80900DDE90F12904709F17E
:102EF0000109761CC145F4DBE0030CD5DDE90F23A5
:102F00002146504600F04CF8064404E0DDE90F127B
:102F100030209047761C0899481E08900029F5DC5F
:102F200008E00A980A990078491C0A91DDE90F1215
:102F30009047761CBBF10001ABF1010BF1DC21469F
:102F40005046DDE90F2300F019F806446D1C1BE61E
:102F5000092801003031323334353637383961626F
:102F60006364656600000000303132333435363733
:102F70003839414243444546000000002DE9F04104
:102F8000044600251E461746880404D405E0394649
:102F90002020B0476D1C641EF9D52846BDE8F0819D
:102FA0002DE9F041044600251E469046C80301D590
:102FB000302700E02027880404D505E04146384644
:102FC000B0476D1C641EF9D52846BDE8F0810A683B
:102FD000531C0B6010707047014600BF0800A1F140
:102FE0000101FBD17047000010B56FF00400FFF73E
:102FF000BBFB0A4800680A49B0FBF1F009490870B8
:103000000846007800EB4001C1EBC0104FF6FF719D
:1030100001EAC0000449088010BD00000000002043
:1030200000127A0014000020160000200146114A08
:1030300012884A434FF0E0235A6100229A611A46EF
:10304000126942F001021A6100BF4FF0E0221069DC
:1030500000F001021AB100F48032002AF5D04FF0DE
:10306000E022126922F001024FF0E0231A610022EF
:103070009A617047160000200146114A12784A43AF
:103080004FF0E0235A6100229A611A46126942F019
:1030900001021A6100BF4FF0E022106900F0010246
:1030A0001AB100F48032002AF5D04FF0E022126904
:1030B00022F001024FF0E0231A6100229A6170476A
:1030C0001400002000BF054A128802F04002002AC6
:1030D000F9D0C2B2014B1B1D1A8070470038014065
:1030E00008B5012018230CA2002100900846FEF725
:1030F0008DFB012010230CA21E2100900020FEF762
:1031000085FB012010230CA2302100900020FEF747
:103110007DFBFEF763FA08BD496E74656C6C6967E8
:10312000656E742020000000202020626F6F6B63AA
:1031300061736520000000002020202073797374E3
:10314000656D000008B500200C2314A20146009014
:10315000FEF75CFB01200C2316A21946009000200C
:10316000FEF754FB01200C2318A218210090002028
:10317000FEF74CFB01200C231AA224210090002012
:10318000FEF744FB01200C231CA2302100900020FC
:10319000FEF73CFBFEF722FA08BD0000496E666FA1
:1031A000726D6174696F6E20656E74727920202073
:1031B00020202000496E666F726D6174696F6E2009
:1031C0007175657279202020202000004C6F616E9F
:1031D00020636172642062696E64696E67202020DA
:1031E00020200000426F72726F77206120626F6F43
:1031F0006B202020202020202020000052657475A4
:10320000726E206120626F6F6B20202020202020B2
:103210002020000008B501200C2314A200210090FA
:103220000846FEF7F3FA00200C2316A21946009078
:10323000FEF7ECFA01200C2318A2182100900020C0
:10324000FEF7E4FA01200C231AA2242100900020AA
:10325000FEF7DCFA01200C231CA230210090002094
:10326000FEF7D4FAFEF7BAF908BD0000496E666FA2
:10327000726D6174696F6E20656E747279202020A2
:1032800020202000496E666F726D6174696F6E2038
:103290007175657279202020202000004C6F616ECE
:1032A00020636172642062696E64696E6720202009
:1032B00020200000426F72726F77206120626F6F72
:1032C0006B202020202020202020000052657475D3
:1032D000726E206120626F6F6B20202020202020E2
:1032E0002020000008B501200C2314A2002100902A
:1032F0000846FEF78BFA01200C2316A2194600900F
:103300000020FEF783FA00200C2318A21821009059
:10331000FEF77CFA01200C231AA224210090002041
:10332000FEF774FA01200C231CA23021009000202B
:10333000FEF76CFAFEF752F908BD0000496E666FA1
:10334000726D6174696F6E20656E747279202020D1
:1033500020202000496E666F726D6174696F6E2067
:103360007175657279202020202000004C6F616EFD
:1033700020636172642062696E64696E6720202038
:1033800020200000426F72726F77206120626F6FA1
:103390006B20202020202020202000005265747502
:1033A000726E206120626F6F6B2020202020202011
:1033B0002020000008B501200C2314A20021009059
:1033C0000846FEF723FA01200C2316A219460090A6
:1033D0000020FEF71BFA01200C2318A218210090F0
:1033E0000020FEF713FA00200C231AA224210090DB
:1033F000FEF70CFA01200C231CA2302100900020C3
:10340000FEF704FAFEF7EAF808BD0000496E666FA1
:10341000726D6174696F6E20656E74727920202000
:1034200020202000496E666F726D6174696F6E2096
:103430007175657279202020202000004C6F616E2C
:1034400020636172642062696E64696E6720202067
:1034500020200000426F72726F77206120626F6FD0
:103460006B20202020202020202000005265747531
:10347000726E206120626F6F6B2020202020202040
:103480002020000008B501200C2314A20021009088
:103490000846FEF7BBF901200C2316A2194600903E
:1034A0000020FEF7B3F901200C2318A21821009088
:1034B0000020FEF7ABF901200C231AA22421009072
:1034C0000020FEF7A3F900200C231CA2302100905D
:1034D000FEF79CF9FEF782F808BD0000496E666FA2
:1034E000726D6174696F6E20656E74727920202030
:1034F00020202000496E666F726D6174696F6E20C6
:103500007175657279202020202000004C6F616E5B
:1035100020636172642062696E64696E6720202096
:1035200020200000426F72726F77206120626F6FFF
:103530006B20202020202020202000005265747560
:10354000726E206120626F6F6B202020202020206F
:103550002020000008B5FFF747FD4FF4A060FDF7FD
:103560004FFFFDF77FFD4FF4E13000F03BF8FDF732
:10357000A5FF01200C2313A2002100900846FEF7AE
:1035800045F9FEF72BF810A0FFF7BCFAFEF70EFC8A
:10359000FDF7E0FB0EA0FFF7B5FA0120FEF72CFBCC
:1035A0000020FEF729FB01214120FDF74FFE0021FD
:1035B0004120FDF74BFE0A48FEF7D0FC01E0FDF785
:1035C0007BFEFCE76173640068656C6C6F00000053
:1035D00057462D524335323220546573740A000029
:1035E000E400002010B586B00446012144F2040036
:1035F000FEF7A4FC4FF40070ADF8140003208DF822
:10360000160018208DF8170005A91C48FDF715F8BD
:103610004FF48060ADF8140004208DF8170005A960
:103620001648FDF70AF825208DF8000003208DF8D4
:1036300001008DF8020001208DF803006846FDF7B7
:10364000A7FE01940020ADF80800ADF80A00ADF81F
:103650000C00ADF810000C20ADF80E0001A90848D0
:10366000FFF768F9012240F225510548FFF73CF9C0
:1036700001210348FFF702F906B010BD0008014020
:10368000003801400000000000000000002F000092
:1036900000000700070000147F147F1400242A7F15
:1036A0002A12006264081323003649552250000094
:1036B0000503000000001C224100000041221C0004
:1036C0000014083E08140008083E0808000000A086
:1036D0006000000808080808000060600000002082
:1036E00010080402003E5149453E0000427F400060
:1036F000004261514946002141454B3100181412E6
:103700007F10002745454539003C4A4949300001B2
:103710007109050300364949493600064949291E01
:103720000000363600000000563600000008142263
:103730004100001414141414000041221408000263
:103740000151090600324959513E007C1211127C88
:10375000007F49494936003E41414122007F4141B5
:10376000221C007F49494941007F09090901003EA7
:103770004149497A007F0808087F0000417F4100E5
:10378000002040413F01007F08142241007F40405B
:103790004040007F020C027F007F0408107F003E43
:1037A0004141413E007F09090906003E4151215E29
:1037B000007F091929460046494949310001017F26
:1037C0000101003F4040403F001F2040201F003FBC
:1037D0004038403F0063140814630007087008076E
:1037E00000615149454300007F41410000552A5581
:1037F0002A55000041417F000004020102040040FC
:10380000404040400000010204000020545454781D
:10381000007F48444438003844444420003844443D
:10382000487F00385454541800087E0901020018DB
:10383000A4A4A47C007F080404780000447D400018
:10384000004080847D00007F102844000000417FFC
:103850004000007C04180478007C080404780038D8
:103860004444443800FC242424180018242418FC60
:10387000007C0804040800485454542000043F44C9
:103880004020003C4040207C001C2040201C003C8C
:103890004030403C004428102844001CA0A0A07CDC
:1038A000004464544C441414141414140000000014
:1038B00000000000000000000000FC00000000000C
:1038C00002000000000C020C0200000000000000DA
:1038D00090D0BCD0BC900003000300001824FE442C
:1038E0008C000302070201001824D8B04C800003AA
:1038F00000010201C038E438E000010202010202C6
:10390000080600000000000000000000000000F8B1
:103910000402000000010204000204F80000000498
:10392000020100009060F8609000000001000000BB
:103930002020FC202000000001000000000000000A
:1039400000000806000000002020202020000000C9
:103950000000000000000000000000020000000065
:103960000080601C0200040300000000F80404044E
:10397000F8000102020201000008FC000000000241
:10398000030200001884442418000302020202000B
:1039900008042424D80001020202010040B088FC7F
:1039A00080000000000302003C242424C400010223
:1039B00002020100F824242CC000010202020100CE
:1039C0000C04E41C0400000003000000D82424249C
:1039D000D80001020202010038444444F800000308
:1039E00002020100000010000000000002000000C0
:1039F00000002000000000000600000000205088A9
:103A000004020000000001029090909090000000DD
:103A100000000000000204885020000201000000A5
:103A20001804C4241800000002000000F804E49404
:103A3000F80001020202020000E09CF08000020394
:103A40000000030204FC2424D80002030202010047
:103A5000F80404040C0001020202010004FC040446
:103A6000F80002030202010004FC24740C000203AB
:103A70000202030004FC24740C0002030200000094
:103A8000F0080444CC4000010202010004FC2020A4
:103A9000FC040203000003020404FC04040002020C
:103AA00003020200000404FC0404060404030000F2
:103AB00004FC24D00C0402030200030204FC0400F2
:103AC0000000020302020203FC3CC03CFC000300B5
:103AD0000300030004FC30C4FC04020302000300E2
:103AE000F8040404F80001020202010004FC24248A
:103AF0001800020302000000F8848404F8000102A8
:103B00000207050004FC246498000203020003027B
:103B1000182424448C000302020201000C04FC045B
:103B20000C0000020302000004FC0000FC04000181
:103B300002020100047C80E01C040000030000007D
:103B40001CE03CE01C00000300030000049C609C9F
:103B50000400020300030200041CE01C0400000235
:103B6000030200000C84641C040002030202030030
:103B70000000FE020200000007040400000E30C036
:103B80000000000000010200000202FE000000042C
:103B90000407000000040204000000000000000010
:103BA00000000000000008080808080800000200E3
:103BB00000000000000000000040A0A0C0000001C4
:103BC0000202030204FC2020C000000302020100E4
:103BD00000C02020600000010202020000C020247A
:103BE000FC0000010202030200C0A0A0C00000010E
:103BF000020202000020F824240400020302020052
:103C00000040A0A0602000070A0A0A0404FC20204B
:103C1000C0000203020003020020E40000000002D2
:103C200003020000000020E400000808080700006C
:103C300004FC80E020200203020003020404FC00D4
:103C40000000020203020200E020E020C0000300A6
:103C50000300030020E02020C00002030200030252
:103C600000C02020C00000010202010020E020204E
:103C7000C000080F0A02010000C02020E00000017F
:103C8000020A0F0820E0402020000203020000008A
:103C90000060A0A020000002020203000020F82023
:103CA000000000000102020020E00020E00000010E
:103CB0000202030220E020806020000003010000D7
:103CC0006080E080600000030003000020608060EE
:103CD000200002030003020020E02080602008088A
:103CE000070100000020A060200000020302020083
:103CF000000020DE0200000000070400000000FFBA
:103D000000000000000F00000002DE2000000004A0
:103D1000070000000201020404020000000000008D
:103D20000000000000000000000000000000000093
:103D3000000000F800000000000000333000000028
:103D400000100C06100C060000000000000000002F
:103D500040C07840C0784000043F04043F040400A1
:103D6000007088FC08300000001820FF211E0000B1
:103D7000F008F000E018000000211C031E211E00C6
:103D800000F00888700000001E212324192721104C
:103D900010160E00000000000000000000000000EF
:103DA000000000E018040200000000071820400096
:103DB00000020418E0000000004020180700000086
:103DC000404080F0804040000202010F01020200EA
:103DD000000000F0000000000101011F01010100CE
:103DE000000000000000000080B070000000000033
:103DF00000000000000000000001010101010101BC
:103E00000000000000000000003030000000000052
:103E10000000000080601804006018060100000027
:103E200000E010080810E000000F102020100F0024
:103E3000001010F8000000000020203F20200000AB
:103E40000070080808887000003028242221300003
:103E500000300888884830000018202020110E000B
:103E60000000C02010F8000000070424243F2400B4
:103E700000F80888880808000019212020110E0089
:103E800000E0108888180000000F112020110E009B
:103E900000380808C83808000000003F0000000093
:103EA0000070880808887000001C222121221C0054
:103EB00000E010080810E0000000312222110F007D
:103EC000000000C0C0000000000000303000000012
:103ED0000000008000000000000080600000000082
:103EE000000080402010080000010204081020009B
:103EF00040404040404040000404040404040400E6
:103F0000000810204080000000201008040201007A
:103F1000007048080808F00000000030360100007A
:103F2000C030C828E810E0000718272423140B002D
:103F30000000C038E0000000203C230202273820A7
:103F400008F8888888700000203F202020110E008B
:103F5000C030080808083800071820202010080082
:103F600008F808080810E000203F202020100F006B
:103F700008F88888E8081000203F20202320180037
:103F800008F88888E8081000203F2000030000009F
:103F9000C03008080838000007182020221E020040
:103FA00008F808000008F808203F210101213F20FF
:103FB000000808F8080800000020203F202000002A
:103FC00000000808F8080800C08080807F0000001A
:103FD00008F888C028180800203F20012638200053
:103FE00008F8080000000000203F202020203000BA
:103FF00008F8F800F8F80800203F003F003F2000D4
:1040000008F830C00008F808203F200007183F00DB
:10401000E01008080810E0000F10202020100F000A
:1040200008F808080808F000203F210101010000FD
:10403000E01008080810E0000F18242438504F0042
:1040400008F8888888887000203F2000030C302002
:1040500000708808080838000038202121221C0040
:10406000180808F8080818000000203F2000000089
:1040700008F808000008F808001F202020201F0072
:104080000878880000C83808000007380E010000D2
:10409000F80800F80008F800033C0700073C03009C
:1040A000081868808068180820302C03032C302002
:1040B0000838C800C83808000000203F2000000071
:1040C00010080808C83808002038262120201800C9
:1040D000000000FE020202000000007F404040009D
:1040E000000C30C000000000000000010638C000D5
:1040F00000020202FE000000004040407F0000007D
:1041000000000402020204000000000000000000A1
:10411000000000000000000080808080808080809F
:104120000002020400000000000000000000000087
:1041300000008080808000000019242222223F207D
:1041400008F8008080000000003F112020110E00C0
:104150000000008080800000000E1120202011004F
:10416000000000808088F800000E112020103F2001
:104170000000808080800000001F22222222130085
:10418000008080F0888888180020203F20200000D0
:104190000000808080808000006B94949493600085
:1041A00008F8008080800000203F210000203F2090
:1041B00000809898000000000020203F2020000090
:1041C000000000809898000000C08080807F000080
:1041D00008F8000080808000203F24022D3020005D
:1041E000000808F8000000000020203F2020000008
:1041F0008080808080808000203F20003F20003F22
:104200008080008080800000203F210000203F202F
:104210000000808080800000001F202020201F00E0
:10422000808000808000000080FFA12020110E000F
:104230000000008080808000000E112020A0FF8000
:10424000808080008080800020203F2120000100AD
:104250000000808080808000003324242424190002
:10426000008080E0808000000000001F202000000F
:104270008080000000808000001F202020103F2050
:10428000808080000080808000010E3008060100E0
:1042900080800080008080800F300C030C300F0085
:1042A00000808000808080000020312E0E312000B0
:1042B000808080000080808080818E7018060100E0
:1042C00000808080808080000021302C22213000FE
:1042D00000000000807C020200000000003F40401F
:1042E00000000000FF00000000000000FF000000D0
:1042F0000002027C800000000040403F00000000FF
:104300000006010102020404000000000000000099
:10431000000000000000000000000000000000009D
:10432000000000000000000000000000000000008D
:10433000000000000000000000F0F0F000000000AD
:104340000000000000017F010000000000000000EC
:10435000001C1C1C0000000000008060301C8C60F1
:10436000301C0C00000000000000000000000000F5
:10437000000000000000000000000000000000E05D
:104380000000000000E000000086E69F868686862A
:10439000E69F860000011F01010101011F010100CC
:1043A000000080C06020F820E0C00000000003078B
:1043B0000C18FF70E18100000000070F10107F1043
:1043C0000F0700008060206080000000E0200000F7
:1043D0000F3020309F70DC371030C0000000100E0E
:1043E00003000718101807000000C02020E0C000DC
:1043F0000000000080E01F38E88703C43C04000090
:10440000070F1810100B070D1010080000808C4CBF
:104410003800000000000000000000000000000064
:10442000000000000000000000000000000000008C
:1044300000000000000080E03008040000000000E0
:1044400000FEFF0100000000000000000000030F5C
:104450001820400000040830E08000000000000048
:104460000000000001FFFE000000000000402018D6
:104470000F03000000000000000000000000C0006A
:1044800000000000004266663C18FF183C66664269
:104490000000000000000300000000000000000019
:1044A0000000800000000000001010101010FF102D
:1044B00010101010000000000000030000000000B9
:1044C00000000000000000000000000000000000EC
:1044D000000000000000000000808C4C380000004C
:1044E00000000000000000000000000000000000CC
:1044F000001010101010101010101000000000001C
:1045000000000000000000000000000000000000AB
:10451000000000000000000000000000000000009B
:1045200000001C1C1C000000000000000000000037
:1045300000000000E0380C000000000080701C0348
:10454000000000000060380E0100000000000000C4
:10455000000080C060202060C080000000FEFF01DD
:104560000000000001FFFE000001070E18101018E7
:104570000E0701000000808080C0E0000000000005
:104580000000000000FFFF0000000000000010100D
:10459000101F1F10101000000080402020202060FD
:1045A000C080000000030300804020381F07000087
:1045B000001C1A1918181818181F00000080C020B5
:1045C000202060C080000000000303001010182F9E
:1045D000E780000000070F10101010180F070000F0
:1045E000000000000000C0E0F000000000C0B08843
:1045F000868180FFFF808000000000000010101FF7
:104600001F1010000000E0606060606060600000EB
:1046100000003F1008080818F0E0000000070B1029
:104620001010101C0F030000000080C0402020204C
:10463000E0C0000000FCFF211008080818F0E000AE
:104640000001070C18101010080F03000000C0E054
:104650006060606060E06000000003000000E0183F
:104660000700000000000000001F1F000000000005
:104670000080C0602020202060C080000087EF2CD8
:104680001818303068CF830000070F081010101082
:10469000180F07000000C0C020202020C0800000AC
:1046A000001F3F604040402010FFFE0000000C1C37
:1046B000101010080F0300000000000000000000B0
:1046C0000000000000000000000E0E0E00000000C0
:1046D00000000000001C1C1C000000000000000086
:1046E000000000000000000000000000000C0C00B2
:1046F000000000000000000000583800000000002A
:104700000000000000000080402010000000102881
:1047100044820100000000000000000000000102CF
:10472000040810000000000000000000000000006D
:104730000084848484848484848484000000000051
:104740000000000000000000000010204080000079
:10475000000000000000000000000182442810005A
:1047600000001008040201000000000000C020202A
:104770001010101030E0C0000003030000F010081B
:104780000C070300000000001C1C1C0000000000BF
:10479000000000C0406020202040C00000FCFF015D
:1047A000F00E03C1FE03807F0001070E08111110F7
:1047B000110904020000000080E0E0000000000099
:1047C0000000807C4340477FF880000010181F10D5
:1047D00000000000131F1C1020E0E02020202060BB
:1047E000C080000000FFFF10101010182FE780009D
:1047F000101F1F1010101010180F0700000080C0AD
:10480000402020202060E00000FCFF0100000000AC
:10481000000001000001070E18101010080403002A
:1048200020E0E02020202040C080000000FFFF00AA
:104830000000000001FFFE00101F1F1010101808DC
:104840000E07010020E0E0202020202020608000D2
:1048500000FFFF101010107C00000000101F1F1040
:10486000101010101018060020E0E020202020205A
:104870006060800000FFFF101010107C000001003D
:10488000101F1F100000000000000000000080C08A
:104890006020202040E0000000FCFF0100004040BC
:1048A000C0C140400001070E181010100F0F00008B
:1048B00020E0E0200000000020E0E02000FFFF10EA
:1048C0001010101010FFFF00101F1F10000000003C
:1048D000101F1F100000202020E0E02020200000FA
:1048E0000000000000FFFF000000000000001010AA
:1048F000101F1F101010000000000000202020E0FA
:10490000E020202000000000000000FFFF00000069
:104910000060E0808080C07F3F00000020E0E02059
:10492000000020A06020200000FFFF30187CE3C0C2
:1049300000000000101F1F10000001131F1C1810A2
:1049400020E0E020000000000000000000FFFF0069
:104950000000000000000000101F1F1010101010B9
:104960001018060020E0E0E000000000E0E0E02099
:1049700000FF013FFEC0E01E01FFFF00101F1000FE
:10498000031F0300101F1F1020E0E0C00000000004
:104990000020E02000FF0003071C78E08000FF00FB
:1049A000101F100000000000030F1F00000080C057
:1049B00060202060C080000000FEFF0100000000B9
:1049C00000FFFE000001070E181010180C07010070
:1049D00020E0E0202020202060C0800000FFFF2099
:1049E00020202020301F0F00101F1F10000000008B
:1049F00000000000000080C060202060C080000037
:104A000000FEFF010000000000FFFE000001070E95
:104A10001111133C7C67210020E0E02020202020A1
:104A200060C0800000FFFF101030F0D0080F0700BA
:104A3000101F1F10000000030F1C10100080C0602A
:104A4000202020204040E00000070F0C18183030D4
:104A500060E08100001F0C0810101010180F0700F4
:104A60008060202020E0E020202060800100000005
:104A700000FFFF000000000100000000101F1F10D9
:104A80000000000020E0E020000000000020E02006
:104A900000FFFF00000000000000FF0000070F18EB
:104AA00010101010100807002060E0E02000000047
:104AB00020E060200000077FF88000807C03000079
:104AC00000000000071F1C070000000020E0E0209D
:104AD00000E0E0200020E0200007FFF8E01FFFFCDE
:104AE000E01F00000000031F0300011F030000007F
:104AF000002060E0A0000020E06020000000000333
:104B00008F7CF8C6010000000010181E130001176A
:104B10001F1810002060E0E02000000020E060206E
:104B2000000001073EF8E018070000000000001038
:104B3000101F1F101000000000806020202020A007
:104B4000E0E0200000000000C0F03E0F0300000085
:104B500000101C1F17101010101806000000000095
:104B600000FC0404040404000000000000FF000036
:104B70000000000000000000007F40404040400076
:104B8000000010E000000000000000000000000035
:104B9000031C608000000000000000000000000313
:104BA0000C70800000000404040404FC00000000F9
:104BB00000000000000000FF000000000000404076
:104BC0004040407F0000000000000010080C040C72
:104BD00008100000000000000000000000000000BD
:104BE00000000000000000000000000000000000C5
:104BF00000000000000000000000000000000000B5
:104C000000000000808080808080808080808080A4
:104C1000000000040408080000000000000000007C
:104C20000000000000000000000000000000000084
:104C30000000000000000000000000000000000074
:104C4000000098D844642424FCF80000000F1F18CA
:104C5000101010081F1F10180020E0F000000000C6
:104C6000000000000000FFFF180804040CF8F0002A
:104C700000001F0F18101010180F03000000000094
:104C8000000000000000000000E0F8180404043CEC
:104C90003800000000030F0C101010100806000070
:104CA0000000000000000020E0F0000000E0F81C20
:104CB00004040408FFFF000000030F181010100880
:104CC0001F0F0800000000000000000000000000AE
:104CD0000000E0F8484444444C7870000000030FA2
:104CE0000C181010100804000000000080C06020A4
:104CF00020E0C00000040404FFFF040404040000DA
:104D0000000010101F1F1010100000000000000015
:104D10000000000000000000000070F88C04048C0B
:104D2000F874040C007076CF8D8D8D89C878700072
:104D30000020E0F000000000000000000000FFFF85
:104D400008040404FCF8000000101F1F10000010ED
:104D50001F1F100000000000006060000000000045
:104D60000000040404FCFC0000000000000010101F
:104D7000101F1F1010100000000000000000006055
:104D80006000000000000000040404FCFC000000BF
:104D90000000C0C08080C07F3F0000000020E0F025
:104DA00000000000000000000000FFFF80C0F41CB5
:104DB0000404000000101F1F1100031F1C1010002E
:104DC0000000202020E0F0000000000000000000B3
:104DD00000FFFF000000000000001010101F1F1057
:104DE00010100000000000000000000000000000A3
:104DF00004FCFC0804FCFC0804FCFC00101F1F1051
:104E0000001F1F10001F1F10000000000000000006
:104E1000000000000004FCFC08080404FCF800008A
:104E200000101F1F100000101F1F100000000000C6
:104E3000000000000000000000E0F0180C04040C6A
:104E400018F0E00000030F0C101010100C0F0300FE
:104E50000000000000000000000000000004FCFC56
:104E6000080404040CF8F0000080FFFF8890101084
:104E70001C0F030000000000000000000000000004
:104E800000E0F81C04040408F8FC000000030F18FC
:104E900010109088FFFF800000000000000000005C
:104EA00000000000040404FCFC100804040C0C00C6
:104EB0001010101F1F101010000000000000000054
:104EC000000000000000000000003078CCC48484A2
:104ED000840C1C0000001E1810101011190F060081
:104EE0000000000000C000000000000000040404F6
:104EF000FFFF040404000000000000000F1F10105A
:104F0000100C000000000000000000000000000085
:104F10000004FCFE00000004FCFE000000000F1F67
:104F2000181010081F0F080000000000000000000B
:104F30000000000000040C3CFCC40000C43C0C0455
:104F400000000000010F1E0E010000000000000024
:104F50000000000000000000043CFCC400E47CFCF5
:104F600084807C040000071F070000071F07000063
:104F70000000000000000000000000000004041C0D
:104F80007CE4C0341C0404000010101C1601131F24
:104F90001C181000000000000000000000000000CD
:104FA00000040C3CFCC400C43C0404000000C080AD
:104FB000C1370E01000000000000000000000000EA
:104FC0000000000000001C0404C4F47C1C04000069
:104FD0000000101C1F17111010180E000000000018
:104FE000000000F80C04000000000000001028EF92
:104FF00000000000000000000000003F60400000D2
:10500000000000000000FF000000000000000000A1
:105010000000FF0000000000000000000000FF0092
:10502000000000000000040CF80000000000000078
:1050300000000000EF2810000000000000004060A9
:105040003F000000000000000018060202040810E3
:1050500020203008000000000000000000000000D8
:105060000000000000000000000000000000F01040
:10507000101010FF10101010F000000000000F04BE
:10508000040404FF040404040F0000004040405FD7
:10509000555555755555555F404040000040200F0F
:1050A000094989790909090F2040000000FE0242E0
:1050B0004ACA4A4ACA4A4A4202FE000000FF405019
:1050C0004C4340404F50505C40FF00000000F888C7
:1050D000888888FF88888888F800000000001F08FA
:1050E0000808087F888888889F80F00080828282F4
:1050F000828282E2A2928A86828080000000000082
:105100000040807F0000000000000000101010FF31
:10511000109008888888FF88888808000444827F67
:1051200001808040432C1028468180000010101020
:1051300010D030FF30D0121C1010000010080402F4
:10514000010000FF000001020408100004040484B0
:10515000E43C2724242424E4040404000402010081
:10516000FF0909090949897F0000000000FE225A51
:105170008600FE9292929292FE00000000FF0408C8
:105180000700FF4020030C14224140000080402013
:1051900018068000071820408000000001002070E1
:1051A00028262120202438600001010000101292DE
:1051B0009292929292121202FE0000000000003FB2
:1051C000101010103F0040807F000000000000C061
:1051D00080808080808080FC84808080808080C00F
:1051E000C0000000000000FF7F404040404040FF02
:1051F00040404040404040FF7F0000000000000071
:10520000000000000000007F7000000000000000AF
:10521000000000000000000000000000000000008E
:10522000000000FCF800000000000000000000008A
:105230000000000000000000FFFE02020202020265
:10524000020202FFFF020202020202020202FF0346
:1052500000000000000000001F1F040404040404F8
:10526000040404FFFF0404040404040404041F00F1
:10527000000000000000000000000000000000002E
:105280000000007F3F000000000000000000000060
:10529000000000000000000000000000000000000E
:1052A00000000000000000000000000000000000FE
:1052B00000F8F8F0F070200000000000000000008E
:1052C00000000000000000000000000000000000DE
:1052D000000000000000000000000000800000004E
:1052E00000000000000000000000000000000000BE
:1052F00000FFFFFFFF0000000000000000000000B2
:10530000000000000000000080800000000000009D
:1053100000000000000000000000000000FFFFFE91
:10532000060606060606060606060606060606061D
:1053300006FFFFFFFF060606060606060606060629
:1053400006060606060606FFFFFFFF07020000002E
:1053500000000000000000000000000000FFFFFF50
:10536000000000000000000000000000000000003D
:1053700000FFFFFFFF000000000000000000000031
:1053800000000000000000FFFFFFFF000000000021
:1053900000000000000000000000000000FFFFFF10
:1053A000181818181818181818181818181818187D
:1053B00018FFFFFFFF1818181818181818181818D1
:1053C00018181818181818FFFFFFFF000000000039
:1053D00000000000000000000000000002010100C9
:1053E00000000000000000000000000000000000BD
:1053F00000FFFFFFFF0000000000000000000000B1
:10540000000000000000000101000000000000009A
:10541000000000000000000000000000000000008C
:10542000000000000000000000000000000000007C
:1054300000FFFFFFFF000000000000000000000070
:10544000000000000000000000000000000000005C
:10545000000000000000000000000000000000004C
:10546000000000000000000000000000000000003C
:10547000001F1F0F0F0000000000000000000000D0
:10548000000000000000000000000000000000001C
:1054900000000000B454000800000020E4000000F8
:1054A0004C2B000898550008E4000020A4090000D7
:1054B0005C2B000800A24A0400000000000000006D
:1054C00001020304060708090000000000000000B4
:1054D00000000000000001020304010203040607AB
:1054E000080902040608630063000000FFFFFFFFD5
:1054F000FFFF11000000000000000001000000009C
:10550000E1300008010205060000000045310008F6
:10551000020301070000000015320008030402081E
:1055200000000000E5320008040503090000000047
:10553000B53300080501040A0000000085340008A6
:10554000060606060600000095080008070707077C
:1055500007000000AD0A000808080808080000005D
:105560009D1000080909090909000000310200081E
:105570000A0A0A0A0A00000065210008000000006B
:10558000000000000000000000000000000000001B
:08559000000000000000000013
:0400000508000145A9
:00000001FF
