:020000040800F2
:1000000020080020ED1000084504000847040008FF
:100010004B0400084F0400085304000800000000CF
:10002000000000000000000000000000570400086D
:1000300059040008000000005B0400085D0400088B
:100040000711000807110008071100080711000830
:100050000711000807110008071100080711000820
:100060000711000807110008071100080711000810
:100070000711000807110008071100080711000800
:1000800007110008071100080711000807110008F0
:1000900007110008071100080711000807110008E0
:1000A00007110008071100080711000807110008D0
:1000B00007110008071100080711000807110008C0
:1000C00007110008071100080711000807110008B0
:1000D00007110008071100080711000807110008A0
:1000E00007110008071100080711000800F002F8C6
:1000F00000F05AF80AA090E8000C82448344AAF168
:100100000107DA4501D100F04FF8AFF2090EBAE865
:100110000F0013F0010F18BFFB1A43F0010318473B
:10012000A4220000C42200000A444FF0000C10F882
:10013000013B13F0070408BF10F8014B1D1108BF65
:1001400010F8015B641E05D010F8016B641E01F805
:10015000016BF9D113F0080F1EBF10F8014BAD1C55
:100160000C1B09D16D1E58BF01F801CBFAD505E073
:1001700014F8016B01F8016B6D1EF9D59142D6D3CD
:10018000704700000023002400250026103A28BFF5
:1001900078C1FBD8520728BF30C148BF0B607047F9
:1001A0001FB51FBD10B510BD01F0C9FC1146FFF70A
:1001B000F7FF00F07FF801F0E7FC03B4FFF7F2FF70
:1001C00003BC01F0EBFC000008B50121042001F0A4
:1001D000C9FA1020ADF800008DF8030003208DF857
:1001E00002006946854801F001F80121084601F046
:1001F000B9FAA020ADF8000018208DF80300694678
:100200007E4800F0F3FF4020ADF8000004208DF898
:1002100003006946794800F0E9FF08BD10B54FF4C6
:10022000806001F0E8F9012141F2040001F09AFA3E
:1002300010BD00B585B00020ADF800004FF482700D
:10024000ADF802000020ADF80400ADF80600ADF8EE
:1002500008004FF40070ADF80A000820ADF80C005B
:100260000020ADF80E000720ADF810006946644884
:1002700001F002FB0121624801F0A3FB05B000BDC3
:100280001FB560A41ECC8DE81E00102806DA3021B0
:10029000604A11701DF8001051700AE0694601EBC8
:1002A000101109785B4A117000F00F011DF8011060
:1002B00051701FBD00F0D4FEFFF786FFFFF7AEFFC1
:1002C000FFF7B7FF00F059FB00F02EFA00F09BFE9D
:1002D00093E000F029FA00221146122000F0E1FA22
:1002E00001220021242000F0DCFA02220021362025
:1002F00000F0D7FA03220021482000F0D2FA0422AD
:1003000000215A2000F0CDFA43A20321062000F07C
:10031000ADFA45A20621032000F0A8FA434A0621BF
:100320001E2000F0A3FA4249262000F04FFD0028CD
:1003300063D13F4800F025FD00285ED13D4908709B
:100340003D4908703D49087011E03D483B49097836
:10035000405C3749394A1278895C884202D00120D2
:100360003449087035480078401C344908703348D7
:1003700000780428E9DB2F48007800283DD00020D1
:100380002E4908700CE02A482C490978405C2C4919
:100390002A4A1278885429480078401C2749087056
:1003A000264800780428EEDB00202449087020E06D
:1003B0001F49224A1278885CFFF762FF15480078CF
:1003C0001A491D4A127888541B480078401C1A4963
:1003D0000870104840781549174A12788854164812
:1003E0000078401C1449087014480078401C1349D8
:1003F0000870124800780428DADB6AE70008014038
:1004000000300140303132333435363738394142EB
:1004100043444546A40100204E4643205243353212
:10042000322054455354000049443A000F00002044
:10043000AE01002002000020030000200100002087
:1004400029000020704700BFFEE700BFFEE700BFA5
:10045000FEE700BFFEE770477047704710B500F039
:1004600033FE10BD0CB50020019000906C48006870
:1004700040F480306A49086000BF6948006800F4B1
:10048000003000900198401C0190009818B9019824
:10049000B0F5A06FF1D16248006800F4003010B1EF
:1004A0000120009001E0002000900098012843D135
:1004B0005C48006840F010005A490860084600682F
:1004C00020F0030008600846006840F00200086061
:1004D00053484068524948600846406848600846AA
:1004E000406840F4806048600846406820F47C1012
:1004F00048600846406840F4E810486008460068D4
:1005000040F08070086000BF4548006800F000704F
:100510000028F9D04248406820F003004049486074
:100520000846406840F00200486000BF3C48406810
:1005300000F00C000828F9D10CBD10B5FFF792FFB0
:1005400010BD10B53648006840F00100344908601D
:100550000846406834490840314948600846006808
:10056000324908402E4908600846006820F480207F
:1005700008600846406820F4FE0048604FF41F0001
:100580008860FFF7DAFF4FF000602949086010BD6E
:1005900010B5002100200022214B5B6803F00C0104
:1005A00021B1042906D0082928D107E0214B224C8B
:1005B000236027E01F4B204C236023E0184B5B682F
:1005C00003F47010164B5B6803F48032022303EBD4
:1005D000904022B9194B4343174C23600DE0104B58
:1005E0005B6803F4003323B1144B4343124C236084
:1005F00003E0104B4343104C236003E00D4B0E4CC3
:10060000236000BF00BF064B5B68C3F303130C4CB1
:10061000E15C094B1B68CB40074C236010BD000018
:1006200000100240002002400000FFF8FFFFF6FE2D
:1006300008ED00E000127A003800002000093D00BB
:100640003C00002070B504460E462EB14FF4805198
:10065000FE4800F078FE04E04FF48051FB4800F0C3
:1006600074FE4FF40051F94800F06FFE00251BE0C6
:100670004FF48071F54800F068FE04F0800028B166
:100680004FF40071F14800F05EFE04E04FF4007199
:10069000EE4800F05AFE4FF48071EC4800F053FE33
:1006A0006006040E681CC5B2082DE1DB4FF4005152
:1006B000E64800F048FE4FF48051E44800F043FE65
:1006C00070BD70B504460D4605F1B001C8B20021F9
:1006D000FFF7B8FF102141EA14100021FFF7B2FF25
:1006E00004F00F0141F001000021FFF7ABFF70BDE6
:1006F00010B500218D20FFF7A5FF00211420FFF782
:10070000A1FF0021AF20FFF79DFF10BD10B5002114
:100710008D20FFF797FF00211020FFF793FF0021A6
:10072000AE20FFF78FFF10BD70B5002419E004F173
:10073000B001C8B20021FFF785FF00210846FFF78E
:1007400081FF00211020FFF77DFF002505E001213A
:100750000020FFF777FF681CC5B2802DF7DB601C17
:10076000C4B2082CE3DB70BD2DE9F04107460E460C
:10077000904600250024A8F12000C5B27F2F02DD9D
:100780000027B01CC6B231463846FFF79AFF002456
:1007900008E004EB0511AE4A505C0121FFF752FF5F
:1007A000601CC4B2082CF4DB701CC1B23846FFF7E1
:1007B00088FF002409E004EB05110831A44A505CCD
:1007C0000121FFF73FFF601CC4B2082CF3DBBDE83A
:1007D000F08110B50246012000E050430B00A1F16A
:1007E0000104E1B2F9D110BD2DE9FF5F0746914642
:1007F0001D460E9E4FF0000A002433E0281B401EC9
:10080000C1B20A20FFF7E5FFB9FBF0F00A21B0FB07
:10081000F1F201FB1208BAF1000F13D1681EA042D9
:1008200010DDB8F1000F0BD1B34606EBDB714910B8
:1008300001FB0471C8B220220199FFF795FF0FE078
:100840004FF0010AB34606EBDB71491001FB04715E
:10085000C8B208F13001CAB20199FFF785FF00BFA5
:10086000601CC4B2AC42C9DBBDE8FF9F2DE9F0417A
:1008700004460F46154600260EE0AA5D394620467E
:10088000FFF772FF04F10800C4B2782C02DD0024E7
:10089000B81CC7B2701CC6B2A85D0028EDD1BDE877
:1008A000F0812DE9F04180460E461546002731467D
:1008B0004046FFF706FF00240AE0664A02EB851176
:1008C000085D0121FFF7BEFE781CC7B2601CC4B2F0
:1008D000102CF2DB701CC1B24046FFF7F2FE002480
:1008E0000CE06900491C5B4A02EB4111085D0121E3
:1008F000FFF7A8FE781CC7B2601CC4B2102CF0DB56
:10090000BDE8F0812DE9F05F06460F4690461C4693
:10091000DDF828A04FF0000BE11704EB5171C9106E
:10092000A4EBC10131B92046E11704EB5171C1F3C9
:10093000C70506E02046E11704EB5171C910491CB8
:10094000CDB23D4615E029463046FFF7BAFEB14626
:100950000BE059460BF1010B1AF801000121FFF7DA
:1009600071FE09F1010000F0FF09C145F1DB681CCF
:10097000C5B2A542E7DBBDE8F09F08B5012108201C
:1009800000F0F0FE4FF4E640ADF8000010208DF8C6
:10099000030003208DF8020069462C4800F026FC75
:1009A0004FF4E641294800F0CEFC642000F082FBC1
:1009B0000021AE20FFF746FE00210846FFF742FE69
:1009C00000211020FFF73EFE00214020FFF73AFEF5
:1009D00000218120FFF736FE0021CF20FFF732FEF5
:1009E0000021A120FFF72EFE0021C820FFF72AFEDC
:1009F0000021A620FFF726FE0021A820FFF722FEF7
:100A000000213F20FFF71EFE0021D320FFF71AFE32
:100A100000210846FFF716FE0021D520FFF712FE41
:100A20000021F020FFF70EFE0021D920FFF70AFE7B
:100A30000021F120FFF706FE0021DA20FFF702FE79
:100A400000211220FFF7FEFD002105E0000C01400F
:100A5000D21D00084C000020DB20FFF7F3FD002131
:100A60004020FFF7EFFD00212020FFF7EBFD0021E4
:100A70000220FFF7E7FD00218D20FFF7E3FD0021B5
:100A80001420FFF7DFFD0021A420FFF7DBFD00218C
:100A9000A620FFF7D7FD0021AF20FFF7D3FD0021EF
:100AA000AF20FFF7CFFDFFF73FFE00210846FFF71D
:100AB00008FE08BD70B50446264600BF0221F7486F
:100AC00001F003F80028F9D03146F44800F0AAFFFD
:100AD00000BF0121F14800F0F8FF0028F9D0EF48ED
:100AE00000F0A2FFC5B2284670BD1CB504460194B3
:100AF0009DF80400FFF7DEFF00909DF800001CBD8C
:100B000070B505460C461021E54800F01EFC01209A
:100B100000F0D0FA2846FFF7E8FF2046FFF7E5FF90
:100B20001021DF4800F00FFC012000F0C3FA70BD77
:100B300070B504461021DA4800F007FC012000F0EF
:100B4000B9FA2046FFF7D1FF0020FFF7CEFF054698
:100B50001021D34800F0F7FB012000F0ABFA284643
:100B600070BD70B504460D467E2000EA4404294657
:100B70002046FFF7C5FF70BD70B504467E2000EA31
:100B8000440040F080042046FFF7D2FF0546284687
:100B900070BD70B505460C462846FFF7EDFF20EA0C
:100BA000040631462846FFF7DCFF70BD70B50546E8
:100BB0000C462846FFF7E0FF40EA04063146284687
:100BC000FFF7CFFF70BD2DE9FE4F064688469146E0
:100BD0009A46DDF830B0022002900020019000908B
:100BE0000C2E06D00E2E09D112200190102000905C
:100BF00005E0772001903020009000E000BF00BFAA
:100C0000019840F080010220FFF7ABFF8021042013
:100C1000FFF7BFFF80210A20FFF7C8FF0021012056
:100C2000FFF79FFF002506E018F805100920FFF7E1
:100C300098FF681C85B24D45F6DB31460120FFF771
:100C400090FF0C2E03D180210D20FFF7AFFF4FF452
:100C5000FA6500BF0420FFF78FFF0446681E85B2C7
:100C600035B104F0010018B9009820400028F1D0F7
:100C700080210D20FFF78DFF002D37D00620FFF7D4
:100C80007BFF00F01B0070BB002002900198204009
:100C900000F0010008B1012002900C2E26D10A209C
:100CA000FFF76AFF04460C20FFF766FF00F0070716
:100CB0002FB1601E07EBC000ABF8000002E0E000BF
:100CC000ABF8000004B90124102C00DD102400252D
:100CD00006E00920FFF750FF0AF80500681C85B2FE
:100CE000A542F6DB02E0FFE7022002900298BDE891
:100CF000FE8F2DE9F0410746884615460421052060
:100D0000FFF747FF80210A20FFF750FF002405E08E
:100D1000395D0920FFF725FF601CC4B24445F7DBAD
:100D200003210120FFF71DFFFF2400BF0520FFF76F
:100D300023FF0646601EC4B21CB106F00400002862
:100D4000F4D02220FFF718FF28702120FFF714FFAE
:100D50006870BDE8F0810EB550208DF804000020C9
:100D60008DF805000DF10602022101A8FFF7C1FF71
:100D700002A801AB042201A900900C20FFF723FF79
:100D80000EBD2DE9FC410446002700210D20FFF790
:100D9000E8FE932020702020607001A823460222E4
:100DA000214600900C20FFF70EFF06465EB9002595
:100DB00003E0605D4740681CC5B2042DF9DB605D4F
:100DC000B84200D002263046BDE8FC817CB506461C
:100DD0000C4607210D20FFF7C4FE267001A823460C
:100DE0000122214600900C20FFF7EDFE05461DB9BB
:100DF000BDF80400102800D0022528467CBD70B53F
:100E0000044621462620FFF7E1FF05461DB920468E
:100E1000FFF7B7FF0546FFF79EFF284670BD10B5E8
:100E200002460B46002107E0505C5C5CA04201D00A
:100E3000022010BD481CC1B20529F5DB0020F8E7EF
:100E4000F0B585B0074693208DF8040070208DF82A
:100E50000500002405E0395D01AAA01C1154601CA6
:100E6000C4B2052CF7DB0DF10B02072101A8FFF737
:100E700040FF04A801AB092201A900900C20FFF754
:100E8000A2FE054635B9BDF81000182802D19DF81C
:100E9000046000E00026304605B0F0BD003001409F
:100EA000000801402DE9F04385B006460F46904604
:100EB00099468DF804608DF80570002406E018F856
:100EC000041001AAA01C1154601CC4B2062CF6DB4D
:100ED000002407E019F8041001AA04F108001154D5
:100EE000601CC4B2042CF5DB04A801AB0C2201A9E0
:100EF00000900E20FFF767FE05462DB90820FFF78A
:100F00003BFE00F0080000B90225284605B0BDE808
:100F1000F0837CB505460C46302020706570A21C1D
:100F200002212046FFF7E5FE01A8234604222146C0
:100F300000900C20FFF747FE06461EB9BDF80400DE
:100F4000902800D0022630467CBDF0B587B006461A
:100F50000F46A0208DF804008DF805600DF1060203
:100F6000022101A8FFF7C5FE06A801AB042201A9D2
:100F700000900C20FFF727FE05464DB9BDF818007C
:100F8000042805D19DF8040000F00F000A2800D0C5
:100F9000022515BB002404E0385D01A90855601C3A
:100FA000C4B2102CF8DB05AA102101A8FFF7A1FE9E
:100FB00006A801AB122201A900900C20FFF703FE46
:100FC00005464DB9BDF81800042805D19DF8040068
:100FD00000F00F000A2800D00225284607B0F0BD17
:100FE00010B51420FFF7C8FD044604F0030018B93B
:100FF00003211420FFF7DAFD10BD10B50F210120E9
:10100000FFF7AFFD10BD10B5FFF7F7FF8D212A20C8
:10101000FFF7A7FD3E212B20FFF7A3FD1E212D206A
:10102000FFF79FFD00212C20FFF79BFD7F2126204D
:10103000FFF797FD84211820FFF793FD402115202D
:10104000FFF78FFD3D211120FFF78BFDFFF7C8FF54
:1010500010BD10B503211420FFF79BFD10BD00004B
:1010600030B51E4800684FF47A72B0FBF2F1B1F16E
:10107000807F00D31DE021F07F40401E4FF0E02232
:10108000506150170F22002807DA13071D0E144B6A
:1010900000F00F04241F1D5503E013071C0E114B15
:1010A0001C5400BF00204FF0E02290610720106127
:1010B00000BF30BD01B50C490098086000BF0A4868
:1010C00000680028FBD108BD0748006820B1064829
:1010D0000068401E04490860704700003800002086
:1010E00018ED00E000E400E08C0100200948804792
:1010F00009480047FEE7FEE7FEE7FEE7FEE7FEE7FA
:10110000FEE7FEE7FEE7FEE704480549054A064B11
:101110007047000043050008ED0000082002002091
:1011200020080020200400202004002010B50446E0
:10113000CC48844208D10121042000F02DFB00217D
:10114000042000F029FB46E0C748844208D1012171
:10115000082000F021FB0021082000F01DFB3AE0F0
:10116000C248844208D10121102000F015FB002163
:10117000102000F011FB2EE0BD48844208D101216F
:10118000202000F009FB0021202000F005FB22E0D8
:10119000B848844208D10121402000F0FDFA002126
:1011A000402000F0F9FA16E0B348844208D101214A
:1011B000802000F0F1FA0021802000F0EDFA0AE032
:1011C000AE48844207D10121801500F0E5FA0021E4
:1011D000A01500F0E1FA10BD10B50121084600F09D
:1011E000DBFA0021012000F0D7FA10BD2DE9F04113
:1011F000024600250026002000230024002791F845
:1012000003C00CF00F0591F803C00CF0100CBCF1FA
:10121000000F03D091F802C04CEA050591F800C018
:10122000BCF1000F31D0146800202BE04FF0010C0E
:101230000CFA00F3B1F800C00CEA03069E4220D17C
:1012400083004FF00F0C0CFA03F7BC4305FA03FCC4
:101250004CEA040491F803C0BCF1280F06D14FF00A
:10126000010C0CFA00FCC2F814C00AE091F803C0AB
:10127000BCF1480F05D14FF0010C0CFA00FCC2F88C
:1012800010C0401C0828D1D31460B1F800C0BCF1D4
:10129000FF0F34DD546800202EE000F1080C4FF001
:1012A000010808FA0CF3B1F800C00CEA03069E42EC
:1012B00021D183004FF00F0C0CFA03F7BC4305FA61
:1012C00003FC4CEA040491F803C0BCF1280F05D1DB
:1012D00000F1080C08FA0CF8C2F8148091F803C069
:1012E000BCF1480F07D100F1080C4FF0010808FAD3
:1012F0000CF8C2F81080401C0828CED35460BDE81A
:10130000F0814FF6FF710180022181700421C170CC
:1013100070470246002093680B400BB1012000E0AB
:10132000002070470146886880B27047024600205E
:10133000D3680B400BB1012000E00020704701464C
:10134000C86880B2704701617047416170470AB157
:10135000016100E041617047C16070474FF4803225
:101360000A438261816182618269826970470246B3
:101370000020434B18684FF68073184040EA021073
:1013800008433F4B186070473E49C8617047F0B54D
:101390000A46002300240021002500F00046B6F193
:1013A000004F02D1364EF16901E0354E7168C0F34D
:1013B000034583B200F44016B6F5401F08D121F072
:1013C00070612F4E766826F070662D4F7E6012E0B9
:1013D00000F48016B6F5801F06D1032606FA05F440
:1013E000A14341F0706106E0460D360103FA06F6AE
:1013F000B14341F0706122B1460D360103FA06F6A1
:10140000314300F00046B6F1004F02D11C4EF161AD
:1014100001E01B4E7160F0BD30B500228B071C0F40
:101420000F2303FA04F2164B08338C1053F82430C0
:101430009343134C08348D1044F8253023468C1008
:1014400053F824308C07240F00FA04F423430C4C87
:1014500008348D1044F8253030BD0A49DC3108606D
:101460007047000000080140000C014000100140DE
:101470000014014000180140001C01400020014000
:101480000000014000002042DF48006840F00100F9
:10149000DD49086008464068DC490840DA49486090
:1014A00008460068DA490840D749086008460068DD
:1014B00020F4802008600846406820F4FE00486060
:1014C0004FF41F0088607047CF49096821F48031CC
:1014D000CD4A11601146096821F480211160B0F5F0
:1014E000803F03D0B0F5802F0ED106E0C6490968D1
:1014F00041F48031C44A116007E0C349096841F4EE
:10150000A021C14A116000E000BF00BF704710B5C4
:1015100001460022002300204A11012A02D1BA4CC0
:10152000236806E0022A02D1B74C236A01E0B64CD8
:10153000636A01F01F02012494401C400CB1012099
:1015400000E0002010BD38B50020009000240025E8
:1015500000BF3120FFF7DBFF05460098401C0090DC
:101560000098B0F5A06F01D0002DF2D03120FFF728
:10157000CEFF08B1012400E00024204638BD01461A
:101580000020A14A106820F0F80040EAC100106075
:101590007047A04908607047024600209A4B58687F
:1015A00020F47C1042EA01031843974B58607047BF
:1015B00098490866704701460020934A506820F019
:1015C00003000843506070478F48406800F00C00EB
:1015D0007047014600208C4A506820F0F000084314
:1015E0005060704701460020874A506820F4E06050
:1015F00008435060704701460020834A506820F439
:10160000605040EAC1005060704729B17E4A527A6A
:1016100002437D4B5A7204E07B4A527A82437A4BF2
:101620005A7270477B49D8310860704701460020E4
:10163000754A506820F440400843506070470021CC
:10164000714A20321170704A82F82010012802D0AD
:1016500004280AD104E001216B4A2032117005E010
:101660000521694A2032117000E000BF00BF7047B9
:101670006949086070476449096A0143624A116216
:101680007047654944390860704730B50021002231
:10169000002400235C4D6D6805F00C0121B1042984
:1016A00005D0082923D105E05C4D056022E05B4DA3
:1016B00005601FE0544D6D6805F47012524D6D6861
:1016C00005F48034022505EB92421CB9544D554374
:1016D00005600BE04C4D6D6805F400351DB1504DB3
:1016E0005543056002E04D4D5543056002E04B4D0A
:1016F000056000BF00BF444D6D6805F0F0010909A9
:10170000484D6B5C0568DD4045603F4D6D6805F4F4
:10171000E061090A434D6B5C4568DD4085603A4DE8
:101720006D6805F46051C90A3E4D6B5C4568DD404B
:10173000C560354D6D6805F44041890B3A4D6B5CD1
:10174000C568B5FBF3F5056130BD29B12E4A526974
:1017500002432D4B5A6104E02B4A526982432A4BC3
:101760005A61704729B1284A92690243264B9A610F
:1017700004E0254A92698243234B9A61704729B15C
:10178000214AD2690243204BDA6104E01E4AD26941
:1017900082431D4BDA61704729B11B4AD26802436C
:1017A000194BDA6004E0184AD2688243164BDA60BB
:1017B000704729B1144A12690243134B1A6104E0BD
:1017C000114A12698243104B1A617047124940391D
:1017D000086070470F49C86470470B49C87170476B
:1017E0000948406A40F080700749486270470146E6
:1017F0000020054A92680A400AB1012000E000205A
:101800007047014988727047001002400000FFF8DD
:10181000FFFFF6FE000042428004424200127A00BE
:1018200000093D0090010020A001002010B50446F1
:10183000BE48844208D101218014FFF7ADFF00218A
:10184000A014FFF7A9FF16E0B948844208D101218E
:101850000014FFF7AEFF00212014FFF7AAFF0AE0F3
:10186000B448844207D10121C013FFF7A2FF002131
:10187000E013FFF79EFF10BD10B50022028802F4AE
:1018800041520B884C8823438C882343CC882343C4
:101890000C8923434C8923438C892343CC892343DC
:1018A0001A430280838B4FF2FF74234083830B8A99
:1018B000038210BD2DE9F04F85B005460C464FF070
:1018C000000902274FF000084FF0010B0026B24636
:1018D000A88B4FF240010840A88302202884B5F865
:1018E0001C90A068022801D100BF38E0A08810B980
:1018F0004FF0010B01E04FF0020B8D48854200D103
:1019000000E000BF6846FFF7C0FEDDF800A0E088F9
:10191000B0F5007F0AD14FEA1A2000EB80004000AA
:10192000A168B0FBF1F0401D86B20BE04FEA4B100E
:10193000BAFBF0F000EB80004000A168B0FBF1F0D2
:10194000401D86B20A20B6FBF0F606F00108A6EBB1
:101950000800C0F34F074FF6FF7000EA0828022F77
:1019600001DBFF2F02DD02274FF00008E08840EA8C
:10197000080038432884A088A18908436188084367
:101980002188084340F4006040EA0909A5F81C904A
:1019900005B0BDE8F08F0021018041808180C180C9
:1019A000018141818181C18107210182704700212C
:1019B000018041808180C18002218160002181817C
:1019C000704721B1028842F04002028004E00288A0
:1019D0004FF6BF731A400280704721B1828B42F4E8
:1019E0008062828304E0828B4FF6FF331A40828349
:1019F000704730B5002400230C110125A540ABB27F
:101A00001AB185881D43858002E085889D438580C5
:101A100030BD1AB183880B43838002E083888B43F7
:101A200083807047818170470146888970474FF6EF
:101A3000FF62914204D0028842F48072028004E086
:101A400002884FF6FF631A400280704721B18288F6
:101A500042F00402828004E082884FF6FB731A4051
:101A60008280704702884FF2FF731A40028002881A
:101A70000A4302807047018841F480510180704719
:101A800021B1028842F40052028004E002884DF63F
:101A9000FF731A400280704702460020012901D0DE
:101AA000108B00E0908A70470146088A7047B1F5B4
:101AB000804F04D1028842F48042028004E0028810
:101AC0004BF6FF731A4002807047024600201389CC
:101AD0000B400BB1012000E000207047CA43028197
:101AE0007047F0B50246002000240023002501F0D5
:101AF0000F070126BE40B4B20B1101269E40B3B2BF
:101B0000968806EA03051689264016B10DB1012014
:101B100000E00020F0BD10B5002201F00F04012309
:101B2000A3409AB2D343038110BD000000300140AE
:101B300000380040003C00407047704770477546D1
:101B400000F028F8AE4605006946534620F007002D
:101B5000854618B020B5FFF7D7FABDE820404FF012
:101B600000064FF000074FF000084FF0000B21F087
:101B70000701AC46ACE8C009ACE8C009ACE8C00954
:101B8000ACE8C0098D4670470446AFF3008020469C
:101B9000FEF713FB00487047C001002001491820E0
:101BA000ABBEFEE726000200704700000000000008
:101BB0000000002F000000000700070000147F1441
:101BC0007F1400242A7F2A1200626408132300363F
:101BD0004955225000000503000000001C2241006E
:101BE000000041221C000014083E08140008083EB2
:101BF0000808000000A060000008080808080000AD
:101C000060600000002010080402003E5149453E7B
:101C10000000427F40000042615149460021414599
:101C20004B31001814127F10002745454539003C00
:101C30004A494930000171090503003649494936CE
:101C400000064949291E00003636000000005636BD
:101C500000000008142241000014141414140000A1
:101C60004122140800020151090600324959513E2F
:101C7000007C1211127C007F49494936003E4141E7
:101C80004122007F4141221C007F49494941007F98
:101C900009090901003E4149497A007F0808087F87
:101CA0000000417F4100002040413F01007F0814B7
:101CB0002241007F40404040007F020C027F007FB5
:101CC0000408107F003E4141413E007F090909069A
:101CD000003E4151215E007F0919294600464949CD
:101CE00049310001017F0101003F4040403F001F9A
:101CF0002040201F003F4038403F00631408146319
:101D000000070870080700615149454300007F4102
:101D1000410000552A552A55000041417F0000042A
:101D20000201020400404040404000000102040063
:101D3000002054545478007F4844443800384444C8
:101D4000442000384444487F003854545418000854
:101D50007E0901020018A4A4A47C007F0804047872
:101D60000000447D4000004080847D00007F1028FA
:101D700044000000417F4000007C04180478007C8F
:101D80000804047800384444443800FC242424180F
:101D90000018242418FC007C08040408004854544B
:101DA000542000043F444020003C4040207C001C64
:101DB0002040201C003C4030403C00442810284477
:101DC000001CA0A0A07C004464544C4414141414BF
:101DD00014140000000000000000000000000000DB
:101DE0000000000000F80000000000000033300098
:101DF000000000100C06100C06000000000000009F
:101E0000000040C07840C0784000043F04043F0414
:101E10000400007088FC08300000001820FF211E1C
:101E20000000F008F000E018000000211C031E2153
:101E30001E0000F00888700000001E2123241927CE
:101E4000211010160E00000000000000000000002D
:101E50000000000000E01804020000000007182045
:101E6000400000020418E0000000004020180700B5
:101E70000000404080F0804040000202010F01025B
:101E80000200000000F0000000000101011F01013C
:101E90000100000000000000000080B070000000A1
:101EA000000000000000000000000001010101012D
:101EB00001010000000000000000003030000000C0
:101EC0000000000000008060180400601806010097
:101ED000000000E010080810E000000F10202010A3
:101EE0000F00001010F8000000000020203F20200C
:101EF00000000070080808887000003028242221A3
:101F00003000003008888848300000182020201158
:101F10000E000000C02010F8000000070424243F39
:101F2000240000F8088888080800001921202011E2
:101F30000E0000E0108888180000000F112020110A
:101F40000E0000380808C83808000000003F0000F4
:101F500000000070880808887000001C22212122DF
:101F60001C0000E010080810E000000031222211DF
:101F70000F00000000C0C000000000000030300072
:101F800000000000008000000000000080600000F1
:101F9000000000008040201008000001020408102A
:101FA0002000404040404040400004040404040439
:101FB00004000008102040800000002010080402E7
:101FC0000100007048080808F000000000303601E9
:101FD0000000C030C828E810E000071827242314A8
:101FE0000B000000C038E0000000203C2302022764
:101FF000382008F8888888700000203F20202011B1
:102000000E00C030080808083800071820202010EB
:10201000080008F808080810E000203F20202010E1
:102020000F0008F88888E8081000203F20202320AF
:10203000180008F88888E8081000203F20000300F6
:102040000000C03008080838000007182020221EB1
:10205000020008F808000008F808203F21010121CB
:102060003F20000808F8080800000020203F20203A
:10207000000000000808F8080800C08080807F0089
:10208000000008F888C028180800203F20012638E2
:10209000200008F8080000000000203F2020202039
:1020A000300008F8F800F8F80800203F003F003F33
:1020B000200008F830C00008F808203F200007186A
:1020C0003F00E01008080810E0000F10202020104A
:1020D0000F0008F808080808F000203F210101015E
:1020E0000000E01008080810E0000F182424385001
:1020F0004F0008F8888888887000203F2000030C73
:10210000302000708808080838000038202121227B
:102110001C00180808F8080818000000203F2000DC
:10212000000008F808000008F808001F2020202000
:102130001F000878880000C83808000007380E0122
:102140000000F80800F80008F800033C0700073C0E
:102150000300081868808068180820302C03032CBE
:1021600030200838C800C83808000000203F200090
:10217000000010080808C838080020382621202050
:102180001800000000FE020202000000007F404034
:102190004000000C30C000000000000000010638C4
:1021A000C00000020202FE000000004040407F002C
:1021B0000000000004020202040000000000000011
:1021C000000000000000000000008080808080800F
:1021D00080800002020400000000000000000000F7
:1021E000000000008080808000000019242222224C
:1021F0003F2008F8008080000000003F11202011DF
:102200000E000000008080800000000E11202020C1
:102210001100000000808088F800000E11202010BE
:102220003F200000808080800000001F22222222A8
:102230001300008080F0888888180020203F20202C
:1022400000000000808080808000006B9494949354
:10225000600008F8008080800000203F21000020FE
:102260003F2000809898000000000020203F2020A0
:102270000000000000809898000000C08080807FEF
:10228000000008F8000080808000203F24022D30EC
:102290002000000808F8000000000020203F202057
:1022A00000008080808080808000203F20003F20D0
:1022B000003F8080008080800000203F21000020BF
:1022C0003F200000808080800000001F2020202010
:1022D0001F00808000808000000080FFA12020116E
:1022E0000E000000008080808000000E112020A0E1
:1022F000FF80808080008080800020203F2120009F
:102300000100000080808080800000332424242489
:102310001900008080E0808000000000001F202065
:1023200000008080000000808000001F202020101E
:102330003F20808080000080808000010E300806F1
:10234000010080800080008080800F300C030C3002
:102350000F0000808000808080000020312E0E3130
:102360002000808080000080808080818E70180630
:10237000010000808080808080000021302C22219C
:10238000300000000000807C020200000000003FDE
:10239000404000000000FF00000000000000FF00BF
:1023A00000000002027C800000000040403F00006E
:1023B0000000000601010202040400000000000009
:1023C00000000000E423000800000020A401000039
:1023D00028010008C0240008A40100207C06000099
:1023E0008401000851580C436172642049443A202A
:1023F0000D300101164009394335354131423584EC
:10240000A24A04001910010203040607080940400B
:1024100042465CD8C07F7FC0D0584E46404020081E
:102420008080C060381F07F8083F7F4040407878C0
:10243000203A8201000A15E2E2B29A8E86828080FA
:10244000051740C0FF7F180D407C3CFFFF10303067
:102450009FFF78F8010111081010020606FFFF0126
:10246000054663395EC7C17F3F20000F11FEFE9213
:10247000FEFE02101117F6F4171310001111101FB1
:102480001F08FFFF85C1713D0F0F3D71C1813808E5
:10249000FEFE2262C2F272050312FEFE1808FFFF62
:1024A000180E070F1E050B174FCEC6212D01020374
:1024B00004040009000607080902040608000000D9
:04000005080000ED02
:00000001FF
